:04000000C2EF00F05B
:10000800FACF08F0FBCF09F0E9CF0AF0A0ED14F021
:10001800D8CF8EF0E8CF8FF0E0CF90F0FACF91F004
:10002800FBCF92F0E9CF93F0EACF94F0E1CF95F0CF
:10003800E2CF96F0D9CF97F0DACF98F0F3CF99F0D6
:10004800F4CF9AF0F6CF9BF0F7CF9CF0F8CF9DF065
:10005800F5CF9EF09EAA6FD035BE06D0355048E148
:10006800640E345CD8B044D0E80E3424D96E010E46
:100078003520DA6E3FEC21F0DF6EE80E3424D96EBD
:10008800010E3520DA6E0D0EDE18D8A42DD0000E24
:100098002D6E010E2C6EE80E226E010E236EE6EC1C
:1000A8000BF0D40E166E010E176EE80E186E010EC8
:1000B800196E94EC20F00CD0E80E3424D96E010EA1
:1000C8003520DA6E000EDF6E3406D8A0350600D073
:1000D80035BE05D03550F0E13404D8B0EDD7000E68
:1000E800356E000E346E27D0344A352A9E9A23D0B6
:1000F800000E2D6E000E2C6E000E356E140E346E32
:1001080035BE19D0355005E13404D8A014D001D03B
:1001180012D0E80E3424D96E010E3520DA6E000EA6
:10012800DF6E000E356E000E346E3406D8A035062C
:10013800E7D7EFD700D09EC0F5FF9DC0F8FF9CC061
:10014800F7FF9BC0F6FF9AC0F4FF99C0F3FF98C071
:10015800DAFF97C0D9FF96C0E2FF95C0E1FF94C0CF
:10016800EAFF93C0E9FF92C0FBFF91C0FAFF90C07D
:10017800E0FF8FC0E8FF8EC0D8FF1000F7EF1DF03A
:10018800000E0101786F000E796F000E7A6F000E75
:100198007B6FAFC0B1F0010E0001B26F000E00011D
:1001A800B36F0001B12B04D0D8900001B237B33738
:1001B8000001B12FF9D7B2C06AF1B3C06BF10101E8
:1001C800000E6BBFFF0E6C6F6D6FFF0E01016A258D
:1001D80001015A6FFF0E01016B2101015B6FFF0ED8
:1001E80001016C2101015C6FFF0E01016D2101010C
:1001F8005D6F000E0001B06F010EAF6F2CD16AC1A8
:100208007CF16BC17DF16CC17EF16DC17FF100D0D5
:1002180001017F357F337E337D337C3301017C518F
:10022800010178250001B16F01017D51010179219A
:100238000001B26F01017E5101017A210001B36F03
:1002480001017F5101017B210001B46F0001B1510F
:1002580001015A5D0001B25101015B590001B3511E
:1002680001015C5901015D51800A0001B56F00016F
:10027800B451800A0001B559D8A0CAD7FF0E0101B0
:100288007C250001B16FFF0E01017D210001B26FD5
:10029800FF0E01017E210001B36FFF0E01017F21D6
:1002A8000001B46F010178510001B1150001B56F6B
:1002B800010179510001B2150001B66F01017A51AF
:1002C8000001B3150001B76F01017B510001B4159E
:1002D8000001B86F01017C510001B5250101786F5B
:1002E80001017D510001B6210101796F01017E51A3
:1002F8000001B72101017A6F01017F510001B82186
:1003080001017B6FAFC0B1F0B0C0B2F0000E0001C8
:10031800B2BFFF0EB36FB46F010178510001B15D38
:10032800010179510001B25901017A510001B35913
:100338000001B451800A0001B56F01017B51800AA8
:100348000001B559D8B083D001D081D0D890000130
:10035800AF35D96E0001B035DA6E0001AB51D92640
:100368000001AC51DA22DECF6EF1DDCF6FF1D8900B
:1003780001017835D96E01017935DA6E0001AB518A
:10038800D9260001AC51DA22D8900001AF35E16ED0
:100398000001B035E26E0001AB51E1260001AC511D
:1003A800E222DECFE6FFDDCFE5FFD8900101783508
:1003B800D96E01017935DA6E0001AB51D9260001F9
:1003C800AC51DA226EC1DEFF6FC1DDFFD8900001AB
:1003D800AF35D96E0001B035DA6E0001AD51D926BE
:1003E8000001AE51DA22DECF70F1DDCF71F1D89085
:1003F80001017835D96E01017935DA6E0001AD5108
:10040800D9260001AE51DA22D8900001AF35E16E4D
:100418000001B035E26E0001AD51E1260001AE5198
:10042800E222DECFE6FFDDCFE5FFD8900101783587
:10043800D96E01017935DA6E0001AD51D926000176
:10044800AE51DA2270C1DEFF71C1DDFF00D00001BC
:10045800AF4BB02B00D0AFC0B1F0B0C0B2F0000EBF
:100468000001B2BFFF0EB36FB46F0001B1510101BB
:100478005A5D0001B25101015B590001B3510101FC
:100488005C5901015D51800A0001B56F0001B4514A
:10049800800A0001B559D8B0B2D6010E01017C6FAF
:1004A800000E7D6F000E7E6F000E7F6F090E01013A
:1004B800566F000E576F000E586F000E596F66D3B7
:1004C800D89001017C3501015E6F01017D35010184
:1004D8005F6F01017E350101606F01017F35010108
:1004E800616F000E0001B06F000EAF6F1CD356C1D4
:1004F800B1F0AFC0B2F0B0C0B3F00001B12B04D07E
:10050800D8900001B237B3370001B12FF9D7B2C084
:1005180080F1B3C081F10101000E81BFFF0E826F2F
:10052800836F000E0001B16F020E0001B26F80C12F
:10053800B3F081C1B4F0D8900001B337B4370001EB
:10054800B1510001B3270001B2510001B423550E87
:100558000001B325F66E770EB421F76E0900F5CFCA
:1005680066F10A00F5CF67F1D89001018035F66E83
:1005780001018135F76E550EF626770EF722090030
:10058800F5CFB1F00900F5CFB2F00001B11FB21FED
:10059800B14BB22BB1C068F1B2C069F10101673546
:1005A800673366330101693569336833AFC074F165
:1005B800B0C075F10101000E75BFFF0E766F776F41
:1005C80096D201017C51010174250101806F01015E
:1005D8007D51010175210101816F01017E510101E8
:1005E80076210101826F01017F510101772101010B
:1005F800836F66C19FF067C1A0F00001000EA0BF25
:10060800FF0EA16FA26FD89001018035D96E01014C
:100618008135DA6E0001AB51D9260001AC51DA22DE
:10062800DECFA3F0DDCFA4F00001000EA4BFFF0EC3
:10063800A56FA66F04EC1FF09FC084F1A0C085F1E0
:10064800A1C086F1A2C087F10E0E0001B16F84C16E
:10065800B2F085C1B3F086C1B4F087C1B5F000012E
:10066800B16701D009D00001B535B533B433B33320
:10067800B2330001B12FF3D7B2C084F1B3C085F112
:10068800B4C086F1B5C087F1010E010184150101DE
:10069800726F0101736B84C1B1F085C1B2F086C17C
:1006A800B3F087C1B4F00001B435B433B333B23317
:1006B800B133010172510001B12501016E6F0101D1
:1006C80073510001B22101016F6F68C19FF069C1C8
:1006D800A0F00001000EA0BFFF0EA16FA26FD8907E
:1006E80001018035D96E01018135DA6E0001AD5105
:1006F800D9260001AE51DA22DECFA3F0DDCFA4F077
:100708000001000EA4BFFF0EA56FA66F04EC1FF03A
:100718009FC084F1A0C085F1A1C086F1A2C087F175
:100728000E0E0001B16F84C1B2F085C1B3F086C16D
:10073800B4F087C1B5F00001B16701D009D000015C
:10074800B535B533B433B333B2330001B12FF3D772
:10075800B2C084F1B3C085F1B4C086F1B5C087F1E9
:10076800010E010184150101726F0101736B84C1CF
:10077800B1F085C1B2F086C1B3F087C1B4F0000111
:10078800B435B433B333B233B1330101725100011C
:10079800B127010173510001B2230001B11FB21F3B
:1007A800B14BB22B01016E510001B12501016E6FF1
:1007B80001016F510001B22101016F6F66C19FF005
:1007C80067C1A0F00001000EA0BFFF0EA16FA26FCD
:1007D800D89001018035D96E01018135DA6E0001AA
:1007E800AD51D9260001AE51DA22DECFA3F0DDCF1C
:1007F800A4F00001000EA4BFFF0EA56FA66F04ECC5
:100808001FF09FC084F1A0C085F1A1C086F1A2C0ED
:1008180087F10E0E0001B16F84C1B2F085C1B3F04B
:1008280086C1B4F087C1B5F00001B16701D009D025
:100838000001B535B533B433B333B2330001B12F4A
:10084800F3D7B2C084F1B3C085F1B4C086F1B5C0A6
:1008580087F1010E010184150101726F0101736BAB
:1008680084C1B1F085C1B2F086C1B3F087C1B4F0DC
:100878000001B435B433B333B233B133010172512B
:100888000001B1250101706F010173510001B2210E
:100898000101716F68C19FF069C1A0F00001000EED
:1008A800A0BFFF0EA16FA26FD89001018035D96E4D
:1008B80001018135DA6E0001AB51D9260001AC5136
:1008C800DA22DECFA3F0DDCFA4F00001000EA4BF32
:1008D800FF0EA56FA66F04EC1FF09FC084F1A0C0A7
:1008E80085F1A1C086F1A2C087F10E0E0001B16F9B
:1008F80084C1B2F085C1B3F086C1B4F087C1B5F048
:100908000001B16701D009D00001B535B533B43362
:10091800B333B2330001B12FF3D7B2C084F1B3C0FF
:1009280085F1B4C086F1B5C087F1010E01018415C7
:100938000101726F0101736B84C1B1F085C1B2F01E
:1009480086C1B3F087C1B4F00001B435B433B33312
:10095800B233B133010172510001B1270101735162
:100968000001B223010170510001B1250101706F2E
:10097800010171510001B2210101716FD89001018B
:100988007435D96E01017535DA6E0001AB51D9267F
:100998000001AC51DA22DECF62F1DDCF63F1D890ED
:1009A80001017435D96E01017535DA6E0001AD515A
:1009B800D9260001AE51DA22DECF64F1DDCF65F130
:1009C800010163356333623301016535653364338F
:1009D8006EC1B1F06FC1B2F00001B11FB21FB14BCF
:1009E800B22B010162510001B127010163510001DD
:1009F800B223D89001018035D96E01018135DA6EB4
:100A08000001AB51D9260001AC51DA22B1C0DEFF9A
:100A1800B2C0DDFF70C1B1F071C1B2F00001B11F09
:100A2800B21FB14BB22B010164510001B127010182
:100A380065510001B223D89001018035D96E0101BA
:100A48008135DA6E0001AD51D9260001AE51DA22A6
:100A5800B1C0DEFFB2C0DDFF01016E5101016225A8
:100A68000001B16F01016F51010163210001B26FF3
:100A7800D89001017435D96E01017535DA6E00011F
:100A8800AB51D9260001AC51DA22B1C0DEFFB2C0A9
:100A9800DDFF01017051010164250001B16F010101
:100AA8007151010165210001B26FD89001017435BF
:100AB800D96E01017535DA6E0001AD51D9260001F4
:100AC800AE51DA22B1C0DEFFB2C0DDFF01015E51D6
:100AD8000101742701015F51010175230101605172
:100AE80001017623010161510101772300D0010141
:100AF8006A510101745D01016B51010175590101D0
:100B08006C510101765901017751800A0001B16FDA
:100B180001016D51800A0001B159D8A052D50001D8
:100B2800AF4BB02B00D0AFC0B1F0B0C0B2F0000EE8
:100B38000001B2BFFF0EB36FB46F01017C51000119
:100B4800B15D01017D510001B25901017E510001E1
:100B5800B3590001B451800A0001B56F01017F51FA
:100B6800800A0001B559D8A0C2D4FF0E010156274A
:100B7800FF0E5723FF0E5823FF0E59235EC17CF149
:100B88005FC17DF160C17EF161C17FF101016A51F0
:100B980001017C5D01016B5101017D5901016C511D
:100BA80001017E5901017F51800A0001B16F0101E5
:100BB8006D51800A0001B159D8A082D41200000EEC
:100BC8000001D26F000E0001D36F400E0001D46FF8
:100BD800D2EC18F0D2C0DAF0D3C0DBF0D4C0DCF02D
:100BE800000E0001D26F000E0001D36F430E00010A
:100BF800D46FD2EC18F0D2C0D7F0D3C0D8F0D4C09C
:100C0800D9F031EC18F0D7C05CF1D8C05DF1D9C08B
:100C18005EF172EC19F05CC193F15DC194F1000EC4
:100C28000001AB6F020E0001AC6F000E0001AD6F4A
:100C3800030E0001AE6F93C1AFF094C1B0F0C4ECE5
:100C480000F0000E01019E6F000E9D6F01019EBF16
:100C58000AD001019E5106E1400E01019D5DD8B008
:100C6800B7D101D0B5D1D89001019D35D96E010118
:100C78009E35DA6E000ED926020EDA22DECF9FF0FC
:100C8800DDCFA0F0D89001019D35D96E01019E35C8
:100C9800DA6E000ED926020EDA22DECFA1F0DDCF01
:100CA800A2F0B7EC20F09FC088F1A0C089F1D890DD
:100CB80001019D35D96E01019E35DA6E000ED926E7
:100CC800030EDA22DECF9FF0DDCFA0F0D89001012D
:100CD8009D35D96E01019E35DA6E000ED926030EB8
:100CE800DA22DECFA1F0DDCFA2F0B7EC20F00001D0
:100CF8009F51010188270001A05101018923D89043
:100D080001019D35D96E01019E35DA6E000ED92696
:100D1800020EDA2288C1DEFF89C1DDFF000E010163
:100D2800996F000E9A6F000E9B6F400E9C6F000E1D
:100D38000101956F000E966F000E976F000E986F69
:100D4800D89001019D35D96E01019E35DA6E000EED
:100D5800D926020EDA22010EDBAE23D01FD121D014
:100D6800020E0101886F99C189F19AC18AF19BC16C
:100D78008BF19CC18CF10101886701D009D0010178
:100D88008C358C338B338A3389330101882FF3D721
:100D980089C199F18AC19AF18BC19BF18CC19CF1EF
:100DA80000D0D89001019D35D96E01019E35DA6ECB
:100DB800000ED926020EDA22DECF88F1DDCF89F1C6
:100DC80088C18AF189C18BF1000E01018BBFFF0E2A
:100DD8008C6F8D6F0101995101018A5D01019A5152
:100DE80001018B5901019B5101018C5901018D5160
:100DF800800A01018E6F01019C51800A01018E5900
:100E0800D8B0C0D0ADD7BED0010199510101952508
:100E18000101886F01019A51010196210101896F31
:100E280001019B510101972101018A6F01019C5128
:100E38000101982101018B6FD89001019D35D96E70
:100E480001019E35DA6E000ED926020EDA22DECFB7
:100E58008CF1DDCF8DF18CC18EF18DC18FF1000E3B
:100E680001018FBFFF0E906F916F01018851010141
:100E78008E5D0101895101018F5901018A510101DA
:100E8800905901019151800A0101926F01018B5122
:100E9800800A01019259D8A03ED00101995101015F
:100EA80095250101886F01019A51010196210101DF
:100EB800896FD89001019D35D96E01019E35DA6E92
:100EC800000ED926020EDA2201018851DE5E895110
:100ED800DD5AD890010199350101886F01019A35D1
:100EE8000101896F01019B3501018A6F01019C3560
:100EF80001018B6F01018851010195270101895179
:100F08000101962301018A510101972301018B51A7
:100F18000101982300D095C188F196C189F197C144
:100F28008AF198C18BF101018B358B338A33893370
:100F3800883388C195F189C196F18AC197F18BC12F
:100F480098F1020E0101886F99C189F19AC18AF15D
:100F58009BC18BF19CC18CF10101886701D009D03C
:100F680001018C358C338B338A3389330101882F07
:100F7800F3D789C199F18AC19AF18BC19BF18CC1D0
:100F88009CF100D00101995101019A1101019B11B5
:100F980001019C11D8B402D037D700D0D8900101F4
:100FA8009D35D96E01019E35DA6E000ED926020EE6
:100FB800DA2295C1DEFF96C1DDFF01019D4B9E2B14
:100FC80001019EBF50D601019E5102E145D600D0D5
:100FD8001200000E2D6E000E2C6E560E00019F6F33
:100FE800010E0001A06FD40E0001A16F010E0001D7
:100FF800A26F4BEC20F06A0E00019F6F010E0001FA
:10100800A06F420E0001A16F010E0001A26F4BEC10
:1010180020F0560E00019F6F010E0001A06F6A0EAE
:101028000001A16F010E0001A26F77EC1FF09FC0B5
:101038007EF1A0C07FF101017E5101017F11D8A48A
:1010480003D081EC13F000D06A0E00019F6F010EEF
:101058000001A06FF60E0001A16F7F0E0001A26FC4
:101068004BEC20F0560E00019F6F010E0001A06F9F
:101078006A0E0001A16F010E0001A26F77EC1FF04C
:101088009FC07EF1A0C07FF101017E5101017F1157
:10109800D8A4CDD0E80E0001AB6F010E0001AC6FF3
:1010A800EAEC09F0430E0001AB6F7F0E0001AC6F54
:1010B800EAEC09F0060E0001AB6F7E0E0001AC6F82
:1010C800EAEC09F000D02C502D10D8B4FCD7E80E6B
:1010D8000001AB6F010E0001AC6FEAEC09F0430EA2
:1010E8000001AB6F7F0E0001AC6FEAEC09F0D40E83
:1010F8000001A56F010E0001A66F31EC1BF0A5C021
:101108005AF0A6C05BF0000E2D6E000E2C6E620E1B
:101118000001AB6F7E0E0001AC6FEAEC09F000D065
:101128002C502D10D8B4FCD7E80E0001AB6F010E7F
:101138000001AC6FEAEC09F0430E0001AB6F7F0EC3
:101148000001AC6FEAEC09F0D40E0001A56F010EA6
:101158000001A66F31EC1BF0A5C050F0A6C051F0FD
:10116800000E2D6E000E2C6E470E0001AB6F7E0E2A
:101178000001AC6FEAEC09F000D02C502D10D8B467
:10118800FCD7E80E0001AB6F010E0001AC6FEAEC72
:1011980009F0430E0001AB6F7F0E0001AC6FEAEC63
:1011A80009F0D40E0001A56F010E0001A66F31EC05
:1011B8001BF0A5C052F0A6C053F0000E2D6E000E15
:1011C8002C6E280E0001AB6F7E0E0001AC6FEAECAE
:1011D80009F000D02C502D10D8B4FCD7E80E00012F
:1011E800AB6F010E0001AC6FEAEC09F0430E000191
:1011F800AB6F7F0E0001AC6FEAEC09F0D40E000172
:10120800A56F010E0001A66F31EC1BF0A5C05CF0C4
:10121800A6C05DF0000E2D6E000E2C6EE50E0001CE
:10122800AB6F7E0E0001AC6FEAEC09F000D06A0EDD
:1012380000019F6F010E0001A06FE30E0001A16F76
:101248007F0E0001A26F4BEC20F0560E00019F6F3D
:10125800010E0001A06F6A0E0001A16F010E0001CE
:10126800A26F77EC1FF09FC07EF1A0C07FF1010153
:101278007E5101017F11D8A425D0E80E0001AB6F83
:10128800010E0001AC6FEAEC09F0430E0001AB6FF0
:101298007F0E0001AC6FEAEC09F0F90E0001AB6FAC
:1012A8007E0E0001AC6F32C0ADF033C0AEF036C078
:1012B800AFF037C0B0F038C0B1F039C0B2F0EAECE6
:1012C80009F000D06A0E00019F6F010E0001A06FA7
:1012D800EA0E0001A16F7F0E0001A26F4BEC20F017
:1012E800560E00019F6F010E0001A06F6A0E0001EB
:1012F800A16F010E0001A26F77EC1FF09FC07EF175
:10130800A0C07FF101017E5101017F11D8A425D031
:10131800E80E0001AB6F010E0001AC6FEAEC09F0BA
:10132800430E0001AB6F7F0E0001AC6FEAEC09F0D1
:101338000D0E0001AB6F7F0E0001AC6F56C0ADF013
:1013480057C0AEF058C0AFF059C0B0F05EC0B1F0B1
:101358005FC0B2F0EAEC09F000D06A0E00019F6F9E
:10136800010E0001A06FF10E0001A16F7F0E0001B8
:10137800A26F4BEC20F0560E00019F6F010E00018A
:10138800A06F6A0E0001A16F010E0001A26F77EC39
:101398001FF09FC07EF1A0C07FF101017E510101C5
:1013A8007F11D8A412D07A0E0001AB6F7D0E000118
:1013B800AC6FEAEC09F0E80E99EC21F08A98000E7F
:1013C8002D6E000E2C6E8A8600D01200AD0E000124
:1013D800BE6F000E0001BF6FD1D1250E0001C719E5
:1013E800D8B405D00001C751C0EC21F0C7D1000E18
:1013F8000001C66F000EC56F000E0001C26FABC0C2
:10140800F6FFACC0F7FFF86A050EF76403D00800D2
:10141800F55005D0F6CFE9FFF7CFEAFFEF50EBEC38
:1014280020F0D8A0AAD0000E0001C66F000EC56F2C
:1014380000D0C5C09FF0C6C0A0F0000E0001A26F8A
:101448000A0EA16FB7EC20F09FC0C5F0A0C0C6F08F
:10145800D00E0001B76FFF0E0001B86FABC0F6FFEA
:10146800ACC0F7FFF86A050EF76403D00800F55022
:1014780005D0F6CFE9FFF7CFEAFFEF500001B96FCB
:10148800BA6B0001B7510001B9270001B85100013A
:10149800BA230001B9510001C5270001BA51000162
:1014A800C6230001AB4BAC2BABC0F6FFACC0F7FFBB
:1014B800F86A050EF76403D00800F55005D0F6CF9A
:1014C800E9FFF7CFEAFFEF50EBEC20F0D8A055D0BA
:1014D800B0D753D076D17DD00001C5510001C05D91
:1014E8000001C6510001C159D8B009D00001C0514E
:1014F8000001C55F0001C1510001C65B0AD0000EA2
:101508000001C66F000EC56F04D0200EC0EC21F09C
:1015180000D00001C507D8A0C6070001C529F5E11C
:101528000001C629D8B40DD0F0D70BD0BBC0D9FF65
:10153800BCC0DAFFDF50C0EC21F00001BB4BBC2B74
:1015480000D00001C007D8A0C1070001C029EEE102
:101558000001C129D8B412D1E9D710D1C70E0001B2
:10156800BB6F000E0001BC6F000E0001C16F010EC1
:10157800C06FB2D70001C28D2CD00001AB51000161
:10158800B76F0001AC510001B86F0001AB4BAC2B39
:10159800B7C0F6FFB8C0F7FFF86A050EF76403D0C6
:1015A8000800F55005D0F6CFE9FFF7CFEAFFEF5076
:1015B8000001C76F0001C751000AD8B402D1640AFC
:1015C800D8B407D00D0AD8B404D01C0AD8B4D2D7DE
:1015D800C5D70001C2BD19D0BEC0D9FFBFC0DAFF50
:1015E800DECFC3F0DDCFC4F0020E0001BE27000E2F
:1015F800BF230001C4AF17D0030E0001C2130001BE
:10160800C36DC41FD8B0C42B0ED0BEC0D9FFBFC095
:10161800DAFFDECFC3F0DDCFC4F0020E0001BE2733
:10162800000EBF2300D0010E0001C76F050E000198
:10163800C719D8B41AD001D018D00001C751020D6B
:10164800550EF324F66E7D0EF420F76E0900F55062
:101658000001C35D0900F5500001C459D8A005D0A8
:1016680001D003D00001C72BE1D70001C55100010B
:10167800C611D8B40CD0C2C0B7F0030E0001B7171A
:10168800D8B405D00001C507D8A0C60700D0800E81
:101698000001C7BF7F0E0001B76F0001C5510001EF
:1016A800C75D0001C651800A0001B759D8B00BD0F8
:1016B8000001C7510001C55F000E0001C7BFFF0E42
:1016C8000001C65B06D0000E0001C66F000EC56F94
:1016D80000D00001C5510001C611D8B40FD0200EAA
:1016E800C0EC21F00001C507D8A0C6070001C5510C
:1016F8000001C611D8B402D0F2D700D0C2C0B7F0EA
:10170800030E0001B717D8B404D02D0EC0EC21F099
:1017180000D0C7C0BDF02AD00001BD51020D550E42
:10172800F324F66E7D0EF420F76E0900F5CFA1F0D4
:101738000A00F5CFA2F0C3C09FF0C4C0A0F0C3EC6C
:101748001EF09FC0A6F0A0C0A7F0000E0001A96F70
:101758000A0EA86F41EC1FF00001A651300F0001DE
:10176800C76F0001C751C0EC21F000D00001BD07D0
:101778000001BD29D8B402D0CFD700D00001AB51A9
:101788000001B76F0001AC510001B86F0001AB4B0D
:10179800AC2BB7C0F6FFB8C0F7FFF86A050EF764C0
:1017A80003D00800F55005D0F6CFE9FFF7CFEAFFE0
:1017B800EF500001C76F0001C751D8B402D00DD651
:1017C80000D01200240E0001836F000E0001846F08
:1017D800BBD1250E00018C19D8B405D000018C515D
:1017E800D6EC21F0B1D1000E00018B6F000E8A6F8C
:1017F800000E0001876F22C0F6FF23C0F7FFF86ACA
:10180800050EF76403D00800F55005D0F6CFE9FFC0
:10181800F7CFEAFFEF5062EC21F0D8A09FD0000E7E
:1018280000018B6F000E8A6F00D08AC016F08BC043
:1018380017F0000E196E0A0E186E18EC21F016C07B
:101848008AF017C08BF0D00E246EFF0E256E22C0D2
:10185800F6FF23C0F7FFF86A050EF76403D0080007
:10186800F55005D0F6CFE9FFF7CFEAFFEF50266E27
:10187800276A2450262625502722265000018A2729
:10188800275000018B23224A232A22C0F6FF23C0B7
:10189800F7FFF86A050EF76403D00800F55005D085
:1018A800F6CFE9FFF7CFEAFFEF5062EC21F0D8A0BE
:1018B80055D0BBD753D066D178D000018A510001EA
:1018C800855D00018B5100018659D8B009D000010F
:1018D800855100018A5F0001865100018B5B0AD0A7
:1018E800000E00018B6F000E8A6F04D0200ED6EC1C
:1018F80021F000D000018A07D8A08B0700018A29AF
:10190800F5E100018B29D8B40DD0F0D70BD080C0F9
:10191800D9FF81C0DAFFDF50D6EC21F00001804BFF
:10192800812B00D000018507D8A0860700018529F2
:10193800EEE100018629D8B407D1E9D705D18C0E8C
:101948000001806F000E0001816F000E0001866F9C
:10195800010E856FB2D70001878D27D02250246EE3
:101968002350256E224A232A24C0F6FF25C0F7FFFC
:10197800F86A050EF76403D00800F55005D0F6CFD5
:10198800E9FFF7CFEAFFEF5000018C6F00018C519F
:10199800000AD8B4F7D0640AD8B407D00D0AD8B46E
:1019A80004D01C0AD8B4D7D7CAD7000187BD19D02C
:1019B80083C0D9FF84C0DAFFDECF88F0DDCF89F09D
:1019C800020E00018327000E8423000189AF17D07F
:1019D800030E000187130001886D891FD8B0892B79
:1019E8000ED083C0D9FF84C0DAFFDECF88F0DDCF08
:1019F80089F0020E00018327000E842300D0010E17
:101A080000018C6F050E00018C19D8B41AD001D0D2
:101A180018D000018C51020D550EF324F66E7D0E80
:101A2800F420F76E0900F5500001885D0900F550B3
:101A380000018959D8A005D001D003D000018C2B12
:101A4800E1D700018A5100018B11D8B40BD087C0AF
:101A580024F0030E2416D8B405D000018A07D8A0B4
:101A68008B0700D0800E00018CBF7F0E246E000112
:101A78008A5100018C5D00018B51800A2458D8B02E
:101A88000BD000018C5100018A5F000E00018CBF51
:101A9800FF0E00018B5B06D0000E00018B6F000E5D
:101AA8008A6F00D000018A5100018B11D8B40FD081
:101AB800200ED6EC21F000018A07D8A08B07000180
:101AC8008A5100018B11D8B402D0F2D700D087C058
:101AD80024F0030E2416D8B404D02D0ED6EC21F031
:101AE80000D08CC082F028D000018251020D550E22
:101AF800F324F66E7D0EF420F76E0900F5CF18F08A
:101B08000A00F5CF19F088C016F089C017F0A6ECC6
:101B18001FF016C01DF017C01EF0000E206E0A0E32
:101B28001F6EFFEC1FF01D50300F00018C6F00017D
:101B38008C51D6EC21F000D00001820700018229E7
:101B4800D8B402D0D1D700D02250246E2350256EAD
:101B5800224A232A24C0F6FF25C0F7FFF86A050E9B
:101B6800F76403D00800F55005D0F6CFE9FFF7CFAA
:101B7800EAFFEF5000018C6F00018C51D8B402D0FD
:101B880028D600D0120021EE0EF010EEB1F0070EAC
:101B9800DBCFE3FFE806FCE2000E0001C26F800E17
:101BA800C16F000E0001BC6F000EBB6F000E00017C
:101BB800C66F020EC56F45D1000E0001C06F000E42
:101BC800BF6F010E0001C5250001A56F000E0001C1
:101BD800C6210001A66F0001A6BF08D00001A651CA
:101BE80048E1040E0001A55DD8B043D0C5C0BDF0E2
:101BF800C6C0BEF0000E0001BA6F000EB96F00013A
:101C0800BEBFAED001D0ACD0D8900001B935D96EE6
:101C18000001BA35DA6EB10ED926000EDA22DECF0F
:101C28009FF0DDCFA0F0D8900001BD35D96E00013E
:101C3800BE35DA6E000ED926020EDA22DECFA1F00A
:101C4800DDCFA2F0B7EC20F00001BF5100019F25C5
:101C58000001BF6F0001C0510001A0210001C06F49
:101C68000001B94BBA2B0001BD07D8A0BE07C7D7E2
:101C780077D0000E0001C46F000EC36F0001C4BF0F
:101C88000AD00001C4516CE1040E0001C35DD8B054
:101C980067D001D065D0C3C0A5F0C4C0A6F00001CC
:101CA800A51FA61FA54BA62B0001C5510001A527FE
:101CB8000001C6510001A6230001C1510001A55D24
:101CC8000001A651800A0001A76F0001C251800AD5
:101CD8000001A759D8B03FD0D8900001C335D96EBC
:101CE8000001C435DA6EB10ED926000EDA22DECF35
:101CF8009FF0DDCFA0F0C3C0A5F0C4C0A6F00001DE
:101D0800A51FA61FA54BA62B0001C5510001A5279D
:101D18000001C6510001A623D8900001A537A637B7
:101D2800000E0001A525D96E020E0001A621DA6E6B
:101D3800DECFA1F0DDCFA2F0B7EC20F00001BF515B
:101D480000019F250001BF6F0001C0510001A021C3
:101D58000001C06F00D00001C34BC42B8FD700D047
:101D68000001C6BF66D00001C65105E1030E00019F
:101D7800C55DD8A05ED0BBC0A5F0BCC0A6F0000170
:101D8800A51FA61FA54BA62BFA0E0001A76FFF0ED5
:101D98000001A86FC5C0A9F0C6C0AAF0D89000017C
:101DA800A937AA370001A7510001A9270001A851A6
:101DB8000001AA23000E0001A925D96E020E000118
:101DC800AA21DA6EDECFABF0DDCFACF00001D890FF
:101DD800AB37AC370001D890AB37AC370001A55111
:101DE8000001AB270001A6510001AC23FA0E000147
:101DF800AD6FFF0E0001AE6FC5C0AFF0C6C0B0F04A
:101E0800D8900001AF37B0370001AD510001AF27BE
:101E18000001AE510001B023000E0001AF25D96EBC
:101E2800020E0001B021DA6EABC0DEFFACC0DDFFF0
:101E380000D0BFC0BBF0C0C0BCF00001C54BC62B72
:101E480000D0020E0001C1250001A56F000E00019F
:101E5800C2210001A66F0001A5510001C55D000166
:101E6800C651800A0001A76F0001A651800A00012F
:101E7800A759D8A0A1D6BBC0A5F0BCC0A6F0000148
:101E8800A51FA61FA54BA62BFE0E0001A76FFF0ED0
:101E98000001A86FC1C0A9F0C2C0AAF0D890000183
:101EA800A937AA370001A7510001A9270001A851A5
:101EB8000001AA23000E0001A925D96E020E000117
:101EC800AA21DA6EDECFABF0DDCFACF00001D890FE
:101ED800AB37AC370001D890AB37AC370001A55110
:101EE8000001AB270001A6510001AC23FE0E000142
:101EF800AD6FFF0E0001AE6FC1C0AFF0C2C0B0F051
:101F0800D8900001AF37B0370001AD510001AF27BD
:101F18000001AE510001B023000E0001AF25D96EBB
:101F2800020E0001B021DA6EABC0DEFFACC0DDFFEF
:101F38001200FC0E926E9396939894908B908A88D8
:101F48008A8651EC21F0B7EC21F0DDEC21F0CFECE2
:101F580021F009D0B2EC15F0ABEC16F0A3C054F0A8
:101F6800A4C055F000D054505510D8A4F3D78AB661
:101F780009D0375004E10B0E365CD8A003D08A860E
:101F88008A9800D0B2EC15F0ABEC16F0A3C054F070
:101F9800A4C055F054505510D8B43AD18AA6B2D03E
:101FA8008B80C80E73EC21F0C80E73EC21F0C80EBC
:101FB80073EC21F02BBE06D02B5034E10A0E2A5CBC
:101FC800D8B030D04E504F10D8B419D02A4A2B2A46
:101FD800000E4F6E000E4E6E460E0001AB6F7F0E68
:101FE8000001AC6F2AC0ADF02BC0AEF0EAEC09F0EE
:101FF800C80E73EC21F0C80E73EC21F000D0A60EC9
:102008000001AB6F7E0E0001AC6F2AC0ADF02BC093
:10201800AEF0EAEC09F0C80E73EC21F0C80E73ECD0
:1020280021F070D02BBE06D02B5034E1640E2A5C10
:10203800D8B030D04E504F10D8B419D02A4A2B2AD5
:10204800000E4F6E000E4E6E580E0001AB6F7F0EE5
:102058000001AC6F2AC0ADF02BC0AEF0EAEC09F07D
:10206800C80E73EC21F0C80E73EC21F000D0BB0E43
:102078000001AB6F7E0E0001AC6F2AC0ADF02BC023
:10208800AEF0EAEC09F0C80E73EC21F0C80E73EC60
:1020980021F038D02BBE06D0E80E2A5C030E2B5850
:1020A800D8B030D04E504F10D8B419D02A4A2B2A65
:1020B800000E4F6E000E4E6E6A0E0001AB6F7F0E63
:1020C8000001AC6F2AC0ADF02BC0AEF0EAEC09F00D
:1020D800C80E73EC21F0C80E73EC21F000D0D00EBE
:1020E8000001AB6F7E0E0001AC6F2AC0ADF02BC0B3
:1020F800AEF0EAEC09F0C80E73EC21F0C80E73ECF0
:1021080021F000D0340E0001AB6F7F0E0001AC6FE0
:10211800EAEC09F0FF0E0001AB6F7E0E0001AC6F18
:1021280032C0ADF033C0AEF036C0AFF037C0B0F05B
:1021380038C0B1F039C0B2F0EAEC09F08E0E0001F7
:10214800AB6F7F0E0001AC6F56C0ADF057C0AEF05C
:1021580058C0AFF059C0B0F05EC0B1F05FC0B2F087
:10216800EAEC09F00BD0B2EC15F054EC12F0ABEC41
:1021780016F0A3C054F0A4C055F000D05450551028
:10218800D8A4F1D7210E0001AB6F7F0E0001AC6F10
:10219800EAEC09F0FF0E0001AB6F7E0E0001AC6F98
:1021A80032C0ADF033C0AEF036C0AFF037C0B0F0DB
:1021B80038C0B1F039C0B2F0EAEC09F08E0E000177
:1021C800AB6F7F0E0001AC6F56C0ADF057C0AEF0DC
:1021D80058C0AFF059C0B0F05EC0B1F05FC0B2F007
:1021E800EAEC09F0FB0E0001AB6F7F0E0001AC6F4B
:1021F800EAEC09F0C80E73EC21F0C80E73EC21F07C
:102208008B90C80E73EC21F0C80E73EC21F000D04F
:102218002C042D10D8A4ABD6EDEC07F0A8D6C2EF4D
:1022280000F0BCC0C0F00001C16BC26B0001BB353F
:102238000001C03701E3C1810001C0510001C56F31
:10224800BFC0C0F00001C16BC26B0001BE35000108
:10225800C03701E3C1810001C0510001C46F000112
:10226800C5510001D8B411D00001C4510001C55DA9
:10227800D8B012D00001C55100080001C4250001E2
:10228800C06F180E0001C06507D0BDC0BAF0BEC04F
:10229800BBF0BFC0BCF003D10001C4510001D8B4E9
:1022A80011D00001C5510001C45DD8B012D00001A1
:1022B800C45100080001C5250001C06F180E0001B7
:1022C800C06507D0BAC0BAF0BBC0BBF0BCC0BCF098
:1022D800E6D0060E0001C36F0001BCAF03D00001B9
:1022E800C38F00D00001BFAF02D00001C38D000131
:1022F800BB8FFF0E0001BA17FF0E0001BB17000EBF
:102308000001BC170001BE8FFF0E0001BD17FF0EB4
:102318000001BE17000E0001BF170001C4510001E3
:10232800C55DD8B028D00001D890BD37BE37BF37BB
:102338000001C4070001C5510001C419D8B413D065
:102348000001C307C3C0C0F0070E0001C017D8B40E
:102358000AD0E9D708D00001D890BC33BB33BA33D0
:102368000001C52B00D00001C4510001C519D8B423
:1023780030D0F1D72ED00001C5510001C45DD8B0CE
:1023880028D00001D890BA37BB37BC370001C50741
:102398000001C5510001C419D8B413D00001C30706
:1023A800C3C0C0F0070E0001C017D8B40AD0E9D7DF
:1023B80008D00001D890BF33BE33BD330001C42B11
:1023C80000D00001C4510001C519D8B402D0F1D71A
:1023D80000D00001C3AF12D0FF0E0001BA1BFF0EE0
:1023E8000001BB1BFF0E0001BC1B010E0001BA2738
:1023F800000E0001BB23000E0001BC230001C3AD89
:1024080013D0FF0E0001BD1BFF0E0001BE1BFF0E07
:102418000001BF1B010E0001BD27000E0001BE23F5
:10242800000E0001BF2300D0000E0001C36F0001A1
:10243800BA510001BD270001BB510001BE230001B4
:10244800BC510001BF230001BFAF16D0FF0E000131
:10245800BD1BFF0E0001BE1BFF0E0001BF1B010EBE
:102468000001BD27000E0001BE23000E0001BF239E
:10247800010E0001C36F00D0BDC09FF0BEC0A0F028
:10248800BFC0A1F0C5C0A2F0C3C0A3F0A1EC1AF070
:102498009FC0BAF0A0C0BBF0A1C0BCF000D0120031
:1024A8002FBE06D02F5030E1800E2E5CD8B02CD035
:1024B8007C0E0001AB6F7F0E0001AC6F3EC0ADF02B
:1024C8003FC0AEF040C0AFF041C0B0F042C0B1F084
:1024D80043C0B2F0D2C1B3F0D3C1B4F0EAEC09F012
:1024E800D8902E34D96E2F34DA6E000ED926020E0B
:1024F800DA2240C0DEFF41C0DDFF010E2E242E6E21
:10250800000E2F202F6EF8D0C7EC0DF0E3EC05F08D
:1025180018C130F019C131F0CE0E0001AB6F7F0E3B
:102528000001AC6F000E0001AE6F010EAD6F18C157
:10253800AFF019C1B0F030C0B1F031C0B2F0EAEC80
:1025480009F0000E0101AB6F010EAA6F000E010128
:10255800A96F020EA86F0101ABBF0AD00101AB51F0
:1025680006E1150E0101AA5DD8B0A5D001D0A3D00F
:10257800D8900101A835D96E0101A935DA6E000E8F
:10258800D926020EDA22DECFA7F0DDCFA8F070EC54
:1025980020F0A7C09FF1A8C0A0F1A9C0A1F19FC1D8
:1025A800D2F0A0C1D3F0A1C1D4F0D2EC18F0D2C0BF
:1025B800A2F1D3C0A3F1D4C0A4F1000E0001D26FE0
:1025C800200E0001D36F410E0001D46FD2EC18F039
:1025D800D2C0DAF0D3C0DBF0D4C0DCF0A2C1AEF0D8
:1025E800A3C1AFF0A4C1B0F0000E0001A26F0A0EA3
:1025F800A16FD8900101AA35D96E0101AB35DA6E09
:10260800180ED926010EDA22DECF9FF0DDCFA0F01A
:10261800B7EC20F09FC0A7F0A0C0A8F070EC20F0A5
:10262800A7C0ABF0A8C0ACF0A9C0ADF083EC17F020
:10263800ABC0D7F0ACC0D8F0ADC0D9F031EC18F0D1
:10264800D7C0A5F1D8C0A6F1D9C0A7F1A5C1BDF0E2
:10265800A6C1BEF0A7C1BFF030C0A7F031C0A8F036
:1026680070EC20F0A7C0BAF0A8C0BBF0A9C0BCF0BD
:1026780015EC11F0BAC05CF1BBC05DF1BCC05EF1F5
:1026880072EC19F05CC130F05DC131F00101AA4B68
:10269800AB2B030E0101A8250101A86F000E010153
:1026A800A9210101A96F0101ABBF62D70101AB519B
:1026B80002E157D700D0910E0001AB6F7E0E0001EA
:1026C800AC6F3EC0ADF03FC0AEF040C0AFF041C00F
:1026D800B0F042C0B1F043C0B2F0D2C1B3F0D3C140
:1026E800B4F030C0B5F031C0B6F0EAEC09F0000E35
:1026F8002F6E000E2E6E00D01200C30E0001AB6FBD
:102708007F0E0001AC6FEAEC09F000D02C502D10C0
:10271800D8B4FCD7E80E0001AB6F010E0001AC6F16
:10272800EAEC09F0430E0001AB6F7F0E0001AC6FBD
:10273800EAEC09F0D40E0001A56F010E0001A66FA6
:1027480031EC1BF0A5C05EF0A6C05FF0000E2D6E48
:10275800000E2C6EAB0E0001AB6F7F0E0001AC6F4C
:10276800EAEC09F000D02C502D10D8B4FCD7E80EB4
:102778000001AB6F010E0001AC6FEAEC09F0430EEB
:102788000001AB6F7F0E0001AC6FEAEC09F0D40ECC
:102798000001A56F010E0001A66F31EC1BF0A5C06A
:1027A80058F0A6C059F0000E2D6E000E2C6ED90EF2
:1027B8000001AB6F7F0E0001AC6FEAEC09F000D0AE
:1027C8002C502D10D8B4FCD7E80E0001AB6F010EC9
:1027D8000001AC6FEAEC09F0430E0001AB6F7F0E0D
:1027E8000001AC6FEAEC09F0D40E0001A56F010EF0
:1027F8000001A66F31EC1BF0A5C056F0A6C057F03B
:10280800000E2D6E000E2C6EB70E0001AB6F7F0E02
:102818000001AC6FEAEC09F000D02C502D10D8B4B0
:10282800FCD7E80E0001AB6F010E0001AC6FEAECBB
:1028380009F0430E0001AB6F7F0E0001AC6FEAECAC
:1028480009F0D40E0001A56F010E0001A66F31EC4E
:102858001BF0A5C032F0A6C033F0000E2D6E000E9E
:102868002C6E9D0E0001AB6F7F0E0001AC6FEAEC81
:1028780009F000D02C502D10D8B4FCD7E80E000178
:10288800AB6F010E0001AC6FEAEC09F0430E0001DA
:10289800AB6F7F0E0001AC6FEAEC09F0D40E0001BB
:1028A800A56F010E0001A66F31EC1BF0A5C036F034
:1028B800A6C037F0000E2D6E000E2C6E000E396E7D
:1028C800000E386E7C0E0001AB6F7E0E0001AC6FFF
:1028D800EAEC09F00D0E0001AB6F7F0E0001AC6F42
:1028E80056C0ADF057C0AEF058C0AFF059C0B0F008
:1028F8005EC0B1F05FC0B2F0EAEC09F0F90E000179
:10290800AB6F7E0E0001AC6F32C0ADF033C0AEF0DD
:1029180036C0AFF037C0B0F038C0B1F039C0B2F04F
:10292800EAEC09F0000E4F6E010E4E6E000E01012A
:10293800176F010E166F12000600EACF0BF0E1CFF9
:102948000CF0E2CF0DF0D9CF0EF0DACF0FF0F3CFC5
:1029580010F0F4CF11F0F6CF12F0F7CF13F0F8CF54
:1029680014F0F5CF15F0030ED76EF90ED66E0101EF
:10297800CC4BCD2B3E0E0101CC190101CD11D8A4B1
:10298800CFD0000E0101CD6F000ECC6F384A392A26
:10299800395004E13C0E385CD8A0C2D0000E396E24
:1029A800000E386E364A372A0101C8050101C911DF
:1029B800D8A415D0FF0E2824286EFF0E2920296ED2
:1029C80028502910D8A40BD0000E0101C96F000EA1
:1029D800C86F000E0101CB6F000ECA6F00D03750D0
:1029E80004E13C0E365CD8A09BD0000E376E000E7A
:1029F800366E324A332A335004E1180E325CD8A0BE
:102A08008FD0000E336E000E326E564A572A000ED3
:102A18004F6E010E4E6E56D000D0200E561857102D
:102A2800D8A47ED0000E576E010E566E09D0000E47
:102A38000101176F010E166F73D000D01F0EEED76D
:102A4800584A592AF4D76CD0030E5E14066E000E4D
:102A58005F14076E06500710D8A41ED05EC001F0A0
:102A68005FC002F0000E046E190E036E25EC20F014
:102A780001500210D8A40AD00F0E5E14066E000E84
:102A88005F14076E06500710D8A406D01E0EC6D7CE
:102A9800584A592ACCD744D01D0EC0D7584A592A6B
:102AA800C6D73ED0200E56185710D8A439D0000EDD
:102AB800576E010E566E000E596E010E586E5E4A24
:102AC8005F2A2ED058C006F059C007F00750000AF8
:102AD800D8A426D00650010AD8B49FD7030AD8B480
:102AE800B3D7010AD8B499D7070AD8B4A7D7010A27
:102AF800D8B493D7030AD8B4A1D7010AD8B48DD7CC
:102B08000F0AD8B48AD7010AD8B498D7030AD8B418
:102B180084D7010AD8B492D7070AD8B4C3D700D04B
:102B2800F29415C0F5FF14C0F8FF13C0F7FF12C0E8
:102B3800F6FF11C0F4FF10C0F3FF0FC0DAFF0EC09C
:102B4800D9FF0DC0E2FF0CC0E1FF0BC0EAFF0AC0CD
:102B5800E9FF09C0FBFF08C0FAFF11004BC06BF189
:102B68004CC06CF14DC06DF148C06EF149C06FF1B9
:102B78004AC070F1ECEC1CF06BC13EF06CC13FF048
:102B88004BC06BF14CC06CF14DC06DF148C06EF19B
:102B980049C06FF14AC070F188EC1CF06BC140F07D
:102BA8006CC141F04BC06BF14CC06CF14DC06DF184
:102BB80048C06EF149C06FF14AC070F124EC1CF0B6
:102BC8006BC142F06CC143F0B0C1ADF0B1C1AEF021
:102BD800B2C1AFF0B3C1B0F03EC0B1F03FC0B2F087
:102BE8000001000EB2BFFF0EB36FB46F50C0B5F056
:102BF80051C0B6F0A7EC1DF0ADC0B0F1AEC0B1F158
:102C0800AFC0B2F1B0C0B3F1B8C1ADF0B9C1AEF068
:102C1800BAC1AFF0BBC1B0F040C0B1F041C0B2F032
:102C28000001000EB2BFFF0EB36FB46F50C0B5F015
:102C380051C0B6F0A7EC1DF0ADC0B8F1AEC0B9F107
:102C4800AFC0BAF1B0C0BBF1C0C1ADF0C1C1AEF008
:102C5800C2C1AFF0C3C1B0F042C0B1F043C0B2F0DE
:102C68000001000EB2BFFF0EB36FB46F50C0B5F0D5
:102C780051C0B6F0A7EC1DF0ADC0C0F1AEC0C1F1B7
:102C8800AFC0C2F1B0C0C3F1B4C1ADF0B5C1AEF0D0
:102C9800B6C1AFF0B7C1B0F03EC0B1F03FC0B2F0BE
:102CA8000001000EB2BFFF0EB36FB46F52C0B5F093
:102CB80053C0B6F0A7EC1DF0ADC0B4F1AEC0B5F18D
:102CC800AFC0B6F1B0C0B7F1BCC1ADF0BDC1AEF098
:102CD800BEC1AFF0BFC1B0F040C0B1F041C0B2F06A
:102CE8000001000EB2BFFF0EB36FB46F52C0B5F053
:102CF80053C0B6F0A7EC1DF0ADC0BCF1AEC0BDF13D
:102D0800AFC0BEF1B0C0BFF1C4C1ADF0C5C1AEF037
:102D1800C6C1AFF0C7C1B0F042C0B1F043C0B2F015
:102D28000001000EB2BFFF0EB36FB46F52C0B5F012
:102D380053C0B6F0A7EC1DF0ADC0C4F1AEC0C5F1EC
:102D4800AFC0C6F1B0C0C7F13CEC1EF01200010ED6
:102D58005A240001A56F000E5B200001A66F000138
:102D6800A76B0001A86B0101AC510001A55D010131
:102D7800AD510001A6590101AE510001A759010149
:102D8800AF510001A859D8B010D0010E5A24000143
:102D9800A56F000E5B200001A66FA5C0ACF1A6C010
:102DA800ADF10101AE6BAF6B00D0B4C1A5F0B5C1F8
:102DB800A6F00001A51FA61FA54BA62B0101B05127
:102DC8000001A52500019F6F0101B1510001A62155
:102DD8000001A06F02EC21F000019F515C5C5D5086
:102DE800800A0001A76F0001A051800A0001A759BD
:102DF800D8A04AD0BCC1A5F0BDC1A6F00001A51F4E
:102E0800A61FA54BA62B0101B8510001A52500015D
:102E18009F6F0101B9510001A6210001A06F02ECCA
:102E280021F000019F515C5C5D50800A0001A76F92
:102E38000001A051800A0001A759D8A025D0C4C11B
:102E4800A5F0C5C1A6F00001A51FA61FA54BA62B7E
:102E58000101C0510001A52500019F6F0101C15169
:102E68000001A6210001A06F02EC21F000019F5192
:102E78005C5C5D50800A0001A76F0001A051800AC8
:102E88000001A759D8B00BD0000E0101AC6F000E9D
:102E9800AD6F000EAE6F000EAF6F2AD02FD05A5014
:102EA8000001A56F5B500001A66F0001A76B000130
:102EB800A86B0101AC510001A55D0101AD510001F4
:102EC800A6590101AE510001A7590101AF510001F6
:102ED800A859D8B006D0000E0001A46F000E0CD07F
:102EE8000DD0010E0101AC27000EAD23AE23AF2398
:102EF800000E0001A46F010EA36F00D01200ADC038
:102F0800B1F00001B26BB36B0001AC350001B13711
:102F180001E3B2810001B1510001B46F0001B45165
:102F2800D8A402D014D098D0B0C0B1F00001B26BD0
:102F3800B36B0001AF350001B13701E3B281000185
:102F4800B1510001B96F0001B951D8A40AD0000EDF
:102F58000001AB6F000E0001AC6F000E0001AD6FF9
:102F68007BD00001B9517B0F0001B427ADC0B9F087
:102F78000001B0510001B91B800E0001B917000112
:102F8800AC8F0001AF8FFF0E0001AE17FF0E0001DE
:102F9800AF17000E0001B017000E0001B56F000E4C
:102FA8000001B66F000E0001B76F070E0001B86F81
:102FB80000D00001ABA10DD00001AE510001B52732
:102FC8000001AF510001B6230001B0510001B72341
:102FD80000D00001D890AD33AC33AB330001D890AA
:102FE800AE37AF37B0370001B82FE3D700D0090E9E
:102FF8000001B86F00D00001ABA10DD00001AE51A7
:103008000001B5270001AF510001B6230001B051FE
:103018000001B72300D00001D890AD33AC33AB33F7
:103028000001D890B733B633B5330001B82FE3D7D2
:1030380000D0B5C09FF0B6C0A0F0B7C0A1F0B4C032
:10304800A2F0B9C0A3F0A1EC1AF09FC0ABF0A0C0E9
:10305800ACF0A1C0ADF000D01200D9C0DDF0000185
:10306800DE6BDF6B0001D8350001DD3701E3DE815F
:103078000001DD5101015A6F01015A51D8A402D053
:1030880014D08BD0DCC0DDF00001DE6BDF6B0001FB
:10309800DB350001DD3701E3DE810001DD5101018F
:1030A8005B6F01015B51D8A40AD0000E0001D76FF5
:1030B800000E0001D86F000E0001D96F6ED0000E0F
:1030C8000101576F000E0101586F000E0101596F81
:1030D80001015B51890F01015A5FD9C05BF1000101
:1030E800DC5101015B1B800E01015B170001D88FC9
:1030F800FF0E0001D717FF0E0001D817000E0001C0
:10310800D9170001DB8FFF0E0001DA17FF0E00014F
:10311800DB17000E0001DC17180E0101566F00D0F6
:103128000101D8905737583759370001DA51000153
:10313800D75D0001DB510001D8590001DC510001C5
:10314800D959D8A00ED00001DA510001D75F00018B
:10315800DB510001D85B0001DC510001D95B0101A2
:1031680057810001D890D737D837D9370101562F62
:10317800D7D700D057C19FF058C1A0F059C1A1F0CE
:103188005AC1A2F05BC1A3F0A1EC1AF09FC0D7F01E
:10319800A0C0D8F0A1C0D9F000D012000001D4AF6F
:1031A80006D0000E0101CF6F210E0DD096D0000180
:1031B800D2510001D3110001D411D8A40FD0000EB0
:1031C8000101CF6F220ECE6F000E0001D26F000EEC
:1031D8000001D36F000E0001D46F7FD0000E0001F4
:1031E800AE6F000E0001AF6F400E0001B06FD50E3C
:1031F8000001A26F000E0001A36FD2C09FF0D3C0E0
:10320800A0F0D4C0A1F050EC1DF09FC0ABF0A0C05E
:10321800ACF0A1C0ADF083EC17F0ABC0BAF0ACC015
:10322800BBF0ADC0BCF0000E0001BD6F800E000108
:10323800BE6FBF0E0001BF6F15EC11F0BAC0D2F01F
:10324800BBC0D3F0BCC0D4F00001D507D8A0D607C6
:10325800D2C0C6F0D3C0C7F0D4C0C8F05F0E00011A
:10326800C96F7D0E0001CA6F000E0001CC6F080EF9
:10327800CB6FADEC1BF0C6C0D2F0C7C0D3F0C8C04E
:10328800D4F0720E0001AE6F310E0001AF6F3F0E29
:103298000001B06FD5C0A7F0D6C0A8F070EC20F040
:1032A800A7C0ABF0A8C0ACF0A9C0ADF083EC17F094
:1032B800ABC0BAF0ACC0BBF0ADC0BCF0D2C0BDF082
:1032C800D3C0BEF0D4C0BFF015EC11F0BAC0D2F034
:1032D800BBC0D3F0BCC0D4F000D012005EC160F116
:1032E8000101616B626B01015D350101603701E32A
:1032F80061810101605101016A6F01016A51D8A41D
:1033080002D051D083D0170E0101606F5CC161F10A
:103318005DC162F15EC163F1010160290101646F61
:1033280005D00101D8906333623361330101642F02
:10333800F8D7010161510101656F01015D8FFF0E31
:1033480001015C17FF0E01015D17000E01015E17F8
:1033580001015C510101666F01015D510101676F57
:1033680001015E510101686F0101696B8E0E010157
:103378006A5F01016AAF13D001016A51800A8F0F99
:10338800D8B003D010D042D000D00101D890693312
:1033980068336733663301016A3FF7D71FD0170ECA
:1033A80001016A6514D0000E01015C6F000E5D6FAB
:1033B800000E5E6F000E5F6F29D009D00101D89012
:1033C800663767376837693701016A0700D0010136
:1033D8006A510101D8B402D0F1D700D0010165517A
:1033E8000101D8B40AD00101691F681F671F666D03
:1033F800000E67236823692300D066C15CF167C1AA
:103408005DF168C15EF169C15FF100D01200000E84
:103418000001A86F0001A6AF0DD00001A61FA51FCF
:10342800A41FA36D000EA423A523A623010E00014B
:10343800A86F00D00001A2AF0DD00001A21FA11FEC
:10344800A01F9F6D000EA023A123A223010E00013F
:10345800A81B00D0000E0001A96F000EAA6F000E75
:10346800AB6F000EAC6F0001A3510001A411000165
:10347800A5110001A611D8B447D0010E0001A76F0D
:1034880009D00001D890A337A437A537A637000183
:10349800A72B00D00001A6BF02D0F3D700D00001AF
:1034A800D890A937AA37AB37AC370001A351000130
:1034B8009F5D0001A4510001A0590001A551000120
:1034C800A1590001A6510001A259D8A013D00001AA
:1034D800A35100019F5F0001A4510001A05B0001FE
:1034E800A5510001A15B0001A6510001A25B0001EA
:1034F800A98100D00001D890A633A533A433A33303
:103508000001A72FCCD700D00001A8510001D8B4E2
:103518000AD00001AC1FAB1FAA1FA96D000EAA2379
:10352800AB23AC2300D0A9C09FF0AAC0A0F0ABC0C9
:10353800A1F0ACC0A2F000D012000001A25100011D
:10354800D8B408D000019F510001A0110001A111B9
:10355800D8A413D0000E00019F6F000E0001A06FC9
:10356800000E0001A16F78D008D00001A22B000145
:10357800D890A133A0339F3300D0000E00019F15CF
:103588000001A46F000E0001A0150001A56FFE0E3A
:103598000001A1150001A66F0001A4510001A511A9
:1035A8000001A611D8B413D0E0D711D00001A22B86
:1035B800010E00019F27000E0001A023000E00014C
:1035C800A1230001D890A133A0339F3300D0000E6F
:1035D80000019F150001A46F000E0001A015000155
:1035E800A56FFF0E0001A1150001A66F0001A451EF
:1035F8000001A5110001A611D8B40AD0D7D708D068
:103608000001A2070001D8909F37A037A13700D04A
:103618000001A0BF05D0020E0001A261F1D700D0C1
:103628000001A2B103D00001A09F00D00001D890F2
:10363800A2330001A2510001A1130001A35100010E
:10364800D8B403D00001A18F00D09FC09FF0A0C0C4
:10365800A0F0A1C0A1F000D0120004D00001A54B39
:10366800A62B00D0A5C0D9FFA6C0DAFF200EDE1811
:10367800D8B4F4D7A5C0D9FFA6C0DAFF090EDE1862
:10368800D8B4ECD7000E0001AB6F000EAA6F000E85
:103698000001A96FA5C0D9FFA6C0DAFF2D0EDE185C
:1036A800D8A403D00001A92B2FD0A5C0D9FFA6C04C
:1036B800DAFF2B0EDE18D8A42BD026D029D0AAC02A
:1036C8009FF0ABC0A0F0000E0001A26F0A0EA16F20
:1036D800B7EC20F0A5C0D9FFA6C0DAFFDF50000183
:1036E800A76FA86B00019F510001A7270001A051F7
:1036F8000001A823D00E0001A7250001AA6FFF0E24
:103708000001A8210001AB6F0001A54BA62B00D03A
:10371800A5C0D9FFA6C0DAFFDF50EBEC20F0D8B087
:10372800CED70001A9510001D8B40ED0AAC0A7F085
:10373800ABC0A8F00001A71FA81FA74BA82BA7C0C4
:10374800A5F0A8C0A6F004D0AAC0A5F0ABC0A6F00A
:103758001200CBC09FF0CCC0A0F0000E0001A26FF9
:10376800030EA16FB7EC20F0C9C0CDF0CAC0CEF0EF
:1037780000019F510001CD270001A0510001CE2377
:10378800CDC0F6FFCEC0F7FF0900F5CFCFF0090096
:10379800F5CFD0F00A00F5CFD1F045D0CFC0AEF0CC
:1037A800D0C0AFF0D1C0B0F0C6C0ABF0C7C0ACF06D
:1037B800C8C0ADF083EC17F0ABC0BAF0ACC0BBF03A
:1037C800ADC0BCF0000E0001A26F030EA16F000196
:1037D800CB07D8A0CC07CBC09FF0CCC0A0F0B7ECEB
:1037E80020F0C9C0CDF0CAC0CEF000019F51000141
:1037F800CD270001A0510001CE23CDC0F6FFCEC0D9
:10380800F7FF0900F5CFBDF00900F5CFBEF00A00BB
:10381800F5CFBFF015EC11F0BAC0CFF0BBC0D0F0B7
:10382800BCC0D1F000D00001CB510001CC11D8A40C
:10383800B5D7CFC0C6F0D0C0C7F0D1C0C8F012000D
:10384800C250C30B1409C26E640E8EEC21F0E3EC77
:1038580021F000D0C8EC21F00009D8A4FBD76EC134
:103868009FF06FC1A0F070C1A1F0D3EC20F09FC011
:10387800BDF0A0C0BEF0A1C0BFF06BC1AEF06CC17E
:10388800AFF06DC1B0F0A4EC21F09FC0A7F0A0C0CC
:10389800A8F070EC20F0A7C0ABF0A8C0ACF0A9C0AD
:1038A800ADF083EC17F0ABC0BAF0ACC0BBF0ADC064
:1038B800BCF015EC11F0BAC071F1BBC072F1BCC01C
:1038C80073F1000E0001AE6FC80E0001AF6F420E1B
:1038D8000001B06F71C1ABF072C1ACF073C1ADF053
:1038E80083EC17F0ABC05CF1ACC05DF1ADC05EF12C
:1038F80072EC19F05CC174F15DC175F174C16BF1C2
:1039080075C16CF100D01200C250C30B1009C26E11
:10391800640E8EEC21F0E3EC21F000D0C8EC21F02D
:103928000009D8A4FBD76EC19FF06FC1A0F070C189
:10393800A1F0D3EC20F09FC0BDF0A0C0BEF0A1C0A4
:10394800BFF06BC1AEF06CC1AFF06DC1B0F0A4ECCC
:1039580021F09FC0A7F0A0C0A8F070EC20F0A7C08D
:10396800ABF0A8C0ACF0A9C0ADF083EC17F0ABC0C9
:10397800BAF0ACC0BBF0ADC0BCF015EC11F0BAC0E9
:1039880071F1BBC072F1BCC073F1000E0001AE6FE3
:10399800C80E0001AF6F420E0001B06F71C1ABF0ED
:1039A80072C1ACF073C1ADF083EC17F0ABC05CF141
:1039B800ACC05DF1ADC05EF172EC19F05CC174F1A0
:1039C8005DC175F174C16BF175C16CF100D0120065
:1039D800C250C30B1809C26E640E8EEC21F0E3ECE2
:1039E80021F000D0C8EC21F00009D8A4FBD76EC1A3
:1039F8009FF06FC1A0F070C1A1F0D3EC20F09FC080
:103A0800BDF0A0C0BEF0A1C0BFF06BC1AEF06CC1EC
:103A1800AFF06DC1B0F0A4EC21F09FC0A7F0A0C03A
:103A2800A8F070EC20F0A7C0ABF0A8C0ACF0A9C01B
:103A3800ADF083EC17F0ABC0BAF0ACC0BBF0ADC0D2
:103A4800BCF015EC11F0BAC071F1BBC072F1BCC08A
:103A580073F1000E0001AE6FC80E0001AF6F420E89
:103A68000001B06F71C1ABF072C1ACF073C1ADF0C1
:103A780083EC17F0ABC05CF1ACC05DF1ADC05EF19A
:103A880072EC19F05CC174F15DC175F174C16BF130
:103A980075C16CF100D0120000019F510001A01106
:103AA8000001A111D8A412D0A2C0D9FFA3C0DAFF87
:103AB800000EDE6E000EDD6E000E00019F6F000E20
:103AC8000001A06F000E0001A16F3CD00001A151C0
:103AD8007F0B0001A46FA56BD8900001A437A53710
:103AE800A2C0D9FFA3C0DAFFA4C0DEFFA5C0DDFFD6
:103AF8000001A0AF04D00001A46BA42B02D00001E8
:103B0800A46B0001A451A2C0D9FFA3C0DAFFDE1242
:103B1800000EDD12A2C0D9FFA3C0DAFF820EDE2696
:103B2800FF0EDD22A181A183A185A187A189A18B97
:103B3800A19D0001A09F9FC09FF0A0C0A0F0A1C0C0
:103B4800A1F000D01200ADC0B7F0AEC0B8F0AFC061
:103B5800B9F0B0C0BAF00001B71FB81FB91FBA1F3B
:103B6800B72B000EB823B923BA230001B1510001C5
:103B7800B72500019F6F0001B2510001B821000173
:103B8800A06F0001B3510001B9210001A16F00012C
:103B9800B4510001BA210001A26FB5C0A3F0B6C0AC
:103BA800A4F00001000EA4BFFF0EA56FA66F0BECDA
:103BB8001AF000019F510001AD270001A05100013A
:103BC800AE230001A1510001AF230001A251000161
:103BD800B023ADC0ADF0AEC0AEF0AFC0AFF0B0C076
:103BE800B0F000D0120003EE00F011EE00F0EE6A23
:103BF800E550E150FCE1E250FAE102EE00F011EE8E
:103C080000F0EE6AE550E150FCE1E250FAE101EE25
:103C1800ACF0500EEE6AE806FDE100EE28F0200E4A
:103C2800EE6AE806FDE1A80EF66E3F0EF76E000E8E
:103C3800F86E01EE00F010EE56F00900F5CFEEFF39
:103C4800E550E150FAE1040EF66E430EF76E000EF1
:103C5800F86E00EE48F010EE18F00900F5CFEEFF10
:103C6800E550E150FAE1000EF86E00019DEF0FF00B
:103C7800AEEC21F09FC03CF0A0C03DF03A503C5C57
:103C88003B503D58D8B020D0F90E0001A36F030E69
:103C98000001A46F3AC0A5F03BC0A6F00001A351F3
:103CA8000001A5270001A4510001A6230001A51FBA
:103CB800A61FA54BA62B3C500001A5250101D26FDC
:103CC8003D500001A62111D03AC0A3F03BC0A4F09A
:103CD8000001A31FA41FA34BA42B3C500001A32544
:103CE8000101D26F3D500001A4210101D36F00D022
:103CF8003CC03AF03DC03BF012000001A16F000E3D
:103D0800AC6E000EAB6E0001A1A102D0AC8800D051
:103D18000001A1A303D0AC8CAB8C00D00001A1A5FD
:103D280002D0AC8E00D00001A1A702D0AB8802D08F
:103D3800AB8A00D00001A1B9AC849E980001A1AB68
:103D480002D0AB8600D00001A1AD02D09D8A01D07F
:103D58009D9A9E9A0001A1AF02D09D8801D09D989E
:103D68009FC0AFFF0001A051B06EAC8AAB8E949C8F
:103D7800948EACB8ACBE02D0948C00D01200000E69
:103D88000001A56F000EA46F0001A1510001A2114E
:103D9800D8B431D0010E0001A36F07D00001D8902C
:103DA800A137A2370001A32B00D00001A2BF02D087
:103DB800F5D700D00001D890A437A5370001A1514C
:103DC80000019F5D0001A2510001A059D8A00BD0AD
:103DD8000001A15100019F5F0001A2510001A05BF9
:103DE8000001A48100D00001D890A233A1330001C2
:103DF800A32FE0D700D0A4C09FF0A5C0A0F0120068
:103E0800000E0001A76F000EA86F000EA96F000E2C
:103E1800AA6F00D000019FA111D00001A351000199
:103E2800A7270001A4510001A8230001A551000102
:103E3800A9230001A6510001AA2300D00001D890AF
:103E4800A337A437A537A6370001D890A233A133EA
:103E5800A0339F3300019F510001A0110001A1115F
:103E68000001A211D8A4D6D7A7C09FF0A8C0A0F07F
:103E7800A9C0A1F0AAC0A2F012000001A851000137
:103E8800A911D8B42BD0010E0001AA6F07D00001E8
:103E9800D890A837A9370001AA2B00D00001A9BFE4
:103EA80002D0F5D700D00001A8510001A65D00019D
:103EB800A9510001A759D8A009D00001A8510001B3
:103EC800A65F0001A9510001A75B00D00001D890AE
:103ED800A933A8330001AA2FE6D700D0A6C0A6F0C0
:103EE800A7C0A7F0120007D000019F4BA02B00012C
:103EF800A14BA22B00D09FC0D9FFA0C0DAFFDF5092
:103F08000001A36FA1C0D9FFA2C0DAFFDF500008EB
:103F18000001A3250001A46F0001A451D8A409D071
:103F28009FC0D9FFA0C0DAFFDF50D8B402D0DCD7D9
:103F380000D00001A45100019F6FA06B9FBFA00794
:103F480000D01200000E1C6E000E1B6E18501910C7
:103F5800D8B421D0010E1A6E05D0D890183619366B
:103F68001A2A00D019BE02D0F8D700D0D8901B3634
:103F78001C361850165C19501758D8A006D018507F
:103F8800165E1950175A1B8000D0D8901932183273
:103F98001A2EECD700D01BC016F01CC017F0120068
:103FA8000D0A596F75207479706564203A00010014
:103FB800010001000100010081D9EBFF0900280080
:103FC8000500FDFF02000500030002000200FEFFDD
:103FD800FEFFFEFFFDFF00000200FFFFFEFF0100E5
:103FE800FDFF434F4E4649470D000000000000000A
:103FF8000000000000001F502010D8B41DD0010E92
:10400800216E05D0D8901F362036212A00D020BE38
:1040180002D0F8D700D01F501D5C20501E58D8A0E1
:1040280005D01F501D5E20501E5A00D0D890203257
:104038001F32212EF0D700D01DC01DF01EC01EF06B
:10404800120003500410D8B41DD0010E056E05D01F
:10405800D89003360436052A00D004BE02D0F8D71B
:1040680000D00350015C04500258D8A005D003507A
:10407800015E0450025A00D0D89004320332052E53
:10408800F0D700D001C001F002C002F012009FC0BA
:10409800A3F0A0C0A4F007D00001A34BA42B0001FB
:1040A800A14BA22B00D0A1C0F6FFA2C0F7FFF86A6F
:1040B800A3C0D9FFA4C0DAFF050EF76403D0080037
:1040C800F55005D0F6CFE9FFF7CFEAFFEF50DF6EE6
:1040D800DF50D8A4E1D71200000E0001AA6F00013A
:1040E800A8AF09D00001A76DA81FD8B0A82B010E52
:1040F8000001AA6F00D0A7C09FF0A8C0A0F00001DF
:10410800A16B8E0E0001A26FAAC0A3F0A1EC1AF059
:104118009FC0A7F0A0C0A8F0A1C0A9F000D01200CD
:1041280016C01AF017C01BF005D01A4A1B2A184AE5
:10413800192A00D018C0F6FF19C0F7FFF86A1AC08C
:10414800D9FF1BC0DAFF050EF76403D00800F5504D
:1041580005D0F6CFE9FFF7CFEAFFEF50DF6EDF506B
:10416800D8A4E3D7120000019F510001A103F3CFA7
:10417800A3F0F4CFA4F000019F510001A203F35073
:104188000001A4270001A0510001A103F350000180
:10419800A427A3C09FF0A4C0A0F000D01200000183
:1041A8009F510001A0110001A111D8B409D0000E3F
:1041B80000019F1B000E0001A01B800E0001A11B27
:1041C8009FC09FF0A0C0A0F0A1C0A1F01200000104
:1041D800A16F000E0001A06F3A0E0001A16108D086
:1041E8002F0E0001A16504D0010E0001A06F00D0C0
:1041F800A0C09FF000019F3100D012000001A0AFC5
:104208000ED09FC0A1F0A0C0A2F00001A11FA21F64
:10421800A14BA22BA1C09FF0A2C0A0F004D09FC0C8
:104228009FF0A0C0A0F0120016501802F3CF1AF0A9
:10423800F4CF1BF016501902F3501B261750180222
:10424800F3501B261AC016F01BC017F000D012003E
:1042580000019F6F00019F517F0BD56E000ED76E36
:10426800000ED66EF29400019FAF02D0F28A01D000
:10427800F29AD58E1200F20E4616ABAC05D04690D7
:10428800ABA002D0468000D0ABB44684ABB2468621
:10429800AECF16F0165000D01200949C948E7C0E6F
:1042A8000001E06F230E606E60C09FF00001A06BFC
:1042B8000001E05181EC1EF0B8861200186E000E65
:1042C800176E3A0E186006D02F0E186403D0010E30
:1042D800176E00D017C016F0163000D0120000017B
:1042E800A06F0D0E00019F6FFC0EE82EFED79F2FCA
:1042F800FCD70001A02FF5D700D01200600B44CDE9
:104308008C3F010032000A00010001000100D007C3
:10431800D007DF0700019F6F030EE82EFED700F0DD
:1043280000019F2FF9D700D0120000019F6FFA0EED
:1043380000F0E82EFDD700019F2FF9D700D012001A
:10434800C4500001A16FC35000019F6FA1C0A0F02D
:1043580000D01200D6CFA1F0D7CFA2F0A1C09FF015
:10436800A2C0A0F01200F28CD08EF28EF28EF28CE7
:10437800F1849E8A9F9A120000019F6F00D09EA828
:10438800FED79FC0ADFF1200C2A202D0010E02D01C
:10439800000E00D01200180EC16EBF0EC06E110EB6
:1043A800C26E1200166E00D09EA8FED716C0ADFFD2
:1043B80012009F0E446E44502CEC21F01200C28271
:0243C8001200E1
:10775400000000C90092015B022403ED03B6047E1D
:107764000547061007D907A1086A09320AFB0AC3AC
:107774000B8B0C530D1B0EE30EAB0F721039110063
:1077840012C7128E1355141B15E115A7166D173366
:1077940018F818BD19821A461B0B1CCF1C931D56D2
:1077A4001E191FDC1F9F2061212322E422A62367C8
:1077B400242725E725A72667272628E528A3296166
:1077C4002A1E2BDB2B982C542D102ECC2E862F41C9
:1077D40030FB30B4316D322633DE3396344D35030D
:1077E40036B9366F372438D8388C393F3AF23AA450
:1077F4003B563C073DB73D673E163FC53F734020AF
:1078040041CD4179422543D0437A442345CC457444
:10781400461C47C34769480E49B349574AFA4A9D2B
:107824004B3F4CE04C804D204EBF4E5D4FFA4F977E
:10783400503351CE51685201539A533254C9545F54
:1078440055F45589561D57B0574258D3586359F3C8
:1078540059815A0F5B9C5B285CB35C3D5DC65D4FF0
:107864005ED65E5D5FE25F6760EB606E61F06171E2
:1078740062F1627063EE636B64E7646265DD6556B2
:1078840066CE664567BC673168A56819698B69FC73
:10789400696C6ADB6A4A6BB76B236C8E6CF86C613B
:1078A4006DC96D306E956EFA6E5E6FC06F22708218
:1078B40070E17040719D71F9715472AE7206735E1D
:1078C40073B5730A745E74B17403755475A475F357
:1078D4007540768D76D87622776B77B377F9773FD4
:1078E400788378C678087949798979C779047A419F
:1078F4007A7C7AB57AEE7A257B5C7B917BC47BF7C4
:107904007B297C597C887CB67CE27C0E7D387D6149
:107914007D897DB07DD57DF97D1C7E3E7E5E7E7E3B
:107924007E9C7EB97ED47EEF7E087F207F377F4C9D
:107934007F617F747F867F967FA67FB47FC17FCD72
:107944007FD77FE07FE87FEF7FF57FF97FFC7FFEC5
:107954007FFF7FFE7FFC7FF97FF57FEF7FE87FE08D
:107964007FD77FCD7FC17FB47FA67F967F867F74CC
:107974007F617F4C7F377F207F087FEF7ED47EB985
:107984007E9C7E7E7E5E7E3E7E1C7EF97DD57DB0B5
:107994007D897D617D387D0E7DE27CB67C887C5955
:1079A4007C297CF77BC47B917B5C7B257BEE7AB561
:1079B4007A7C7A417A047AC779897949790879C6CF
:1079C4007883783F78F977B3776B772277D8768D99
:1079D400764076F375A47554750375B1745E740AB4
:1079E40074B5735E730673AE725472F9719D71400F
:1079F40071E17082702270C06F5E6FFA6E956E30A6
:107A04006EC96D616DF86C8E6C236CB76B4A6BDB61
:107A14006A6C6AFC698B691969A5683168BC674539
:107A240067CE665666DD656265E7646B64EE637017
:107A340063F1627162F0616E61EB606760E25F5DE9
:107A44005FD65E4F5EC65D3D5DB35C285C9C5B0F9C
:107A54005B815AF3596359D3584258B0571D57891B
:107A640056F4555F55C95432549A5301536852CE53
:107A74005133519750FA4F5D4FBF4E204E804DE029
:107A84004C3F4C9D4BFA4A574AB3490E496948C387
:107A9400471C477446CC4523457A44D04325437953
:107AA40042CD4120417340C53F163F673EB73D0775
:107AB4003D563CA43BF23A3F3A8C39D83824386FCF
:107AC40037B93603364D359634DE3326336D32B44A
:107AD40031FB304130862FCC2E102E542D982CDBC8
:107AE4002B1E2B612AA329E52826286727A726E72A
:107AF4002527256724A623E422232261219F20DC55
:107B04001F191F561E931DCF1C0B1C461B821ABD2A
:107B140019F81833186D17A716E1151B1555148E8F
:107B240013C712001239117210AB0FE30E1B0E5360
:107B34000D8B0CC30BFB0A320A6A09A108D9071082
:107B44000747067E05B604ED0324035B029201C9D0
:107B540000000037FF6EFEA5FDDCFC13FC4AFB822F
:107B6400FAB9F9F0F827F85FF796F6CEF505F53D82
:107B7400F475F3ADF2E5F11DF155F08EEFC7EE00AB
:107B8400EE39ED72ECABEBE5EA1FEA59E993E8CD87
:107B9400E708E743E67EE5BAE4F5E331E36DE2AAFC
:107BA400E1E7E024E061DF9FDEDDDD1CDD5ADC99E6
:107BB400DBD9DA19DA59D999D8DAD71BD75DD69F28
:107BC400D5E2D425D468D3ACD2F0D134D17AD0BFA5
:107BD400CF05CF4CCE93CDDACC22CC6ACBB3CAFD41
:107BE400C947C991C8DCC728C774C6C1C50EC55CDE
:107BF400C4AAC3F9C249C299C1EAC03BC08DBFE05F
:107C0400BE33BE87BDDBBC30BC86BBDDBA34BA8CA8
:107C1400B9E4B83DB897B7F2B64DB6A9B506B563A1
:107C2400B4C1B320B380B2E0B141B1A3B006B0692E
:107C3400AFCDAE32AE98ADFFAC66ACCEAB37ABA138
:107C4400AA0CAA77A9E3A850A8BEA72DA79DA60DA4
:107C5400A67FA5F1A464A4D8A34DA3C3A23AA2B15C
:107C6400A12AA1A3A01EA0999F159F929E109E8F4A
:107C74009D0F9D909C129C959B199B9E9A239AAA5A
:107C8400993299BB984498CF975B97E79675960479
:107C94009694952595B6944994DD93729308939F91
:107CA400923792D0916B910691A2904090DE8F7E94
:107CB4008F1F8FC08E638E078EAC8D528DFA8CA26F
:107CC4008C4B8CF68BA28B4F8BFD8AAC8A5C8A0D15
:107CD4008AC08973892889DE8895884D880788C178
:107CE400877D873A87F886B78677863986FC85BF8D
:107CF4008584854B851285DB84A4846F843C840948
:107D040084D783A78378834A831E83F282C8829FA1
:107D140082778250822B820782E481C281A281828F
:107D240081648147812C811181F880E080C980B40D
:107D3400809F808C807A806A805A804C803F803318
:107D44008029802080188011800B800780048002A5
:107D54008001000A006400E803102700000000808E
:107D64003FF0FFBEE2A93E8376BEAE2B3E3CC3BDD0
:107D7400D2133D78D3BB537769746368696E672007
:107D84006F76657220746F2044617461204C6F6754
:107D940067696E672E0D0A546F207265636F6E6E8D
:107DA4006563742076696120626C7565746F6F74A5
:107DB400682C20746865206C6F67676572206D7528
:107DC400737420626520706F776572206379636CC9
:107DD40065642E0D0A426C7565746F6F7468206D4E
:107DE4006F64756C652077696C6C20626520706FB8
:107DF400776572656420646F776E206E6F772E0DE1
:107E04000A00536574206F6666636F756E746D61E6
:107E140078202864656661756C74203230303029AE
:107E24003A0D0A00536574206F6E74687265736846
:107E3400202864656661756C742032303030293ACC
:107E44000D0A00536574204E73686F7274202864A1
:107E5400656661756C74203130293A0D0A005365EA
:107E640074204E6C6F6E67202864656661756C744F
:107E7400203530293A0D0A004461746520616E642E
:107E84002054696D6520536574210D0A00253669F7
:107E94002C2536692C2536692C2535752C25690D3C
:107EA4000A00617070656E642046494C452531694D
:107EB4002E7478740D0A00617070656E64204649F2
:107EC4004C452532692E7478740D0A006170706512
:107ED4006E642046494C452533692E7478740D0A26
:107EE4000053657474696E6720436F6D706C6574BC
:107EF40065210D0A0054696D653A202532693A25D9
:107F040032693A2532690D0A00446174653A2025C4
:107F140032692F2532692F2534690D0A0050756D99
:107F240070696E672053746F707065642E0D0A005B
:107F34000D0D0A4C6F672073746172746564210DB2
:107F44000A006E65772046494C452531692E7478C0
:107F5400740D0A006E65772046494C452532692E1A
:107F64007478740D0A006E65772046494C452533B4
:107F7400692E7478740D0A002536692C2536692C0F
:107F84002536692C2535750D0A002532692F2532D1
:107F9400692F2534690D0A0A00536574204D696EF2
:107FA400757465733A2000536574204D6F6E746860
:107FB4003A200053657420486F7572733A20005359
:107FC400657420596561723A200009256920256984
:107FD4002025690A00536574204461793A200054CD
:107FE400696D653F0D00446174653F0D004C4F475A
:0C7FF4000D005345540D007E7E7E000001
:020000040020DA
:08000000FFFFFFFFFFFFFFFF00
:020000040030CA
:0E000000FF06191EFF8181FF0FC00FE00F40A9
:00000001FF
