:04000000C4EF00F059
:10000800FACF08F0FBCF09F0E9CF0AF04CED15F074
:10001800D8CF8EF0E8CF8FF0E0CF90F0FACF91F004
:10002800FBCF92F0E9CF93F0EACF94F0E1CF95F0CF
:10003800E2CF96F0D9CF97F0DACF98F0F3CF99F0D6
:10004800F4CF9AF0F6CF9BF0F7CF9CF0F8CF9DF065
:10005800F5CF9EF09EAA71D035BE06D0355049E145
:10006800640E345CD8B045D0E60E3424D96E010E47
:100078003520DA6EFAEC21F0DF6EE60E3424D96E04
:10008800010E3520DA6E0D0EDE18D8A42ED0000E23
:100098000001DE6F010EDD6FE60E226E010E236E8B
:1000A800F6EC0BF0D20E166E010E176EE60E186EF9
:1000B800010E196E4FEC21F00CD0E60E3424D96EE7
:1000C800010E3520DA6E000EDF6E3406D8A0350634
:1000D80000D035BE05D03550F0E13404D8B0EDD7A6
:1000E800000E356E000E346E28D0344A352A9E9A9A
:1000F80024D0000E0001DE6F000EDD6F000E356E9D
:10010800140E346E35BE19D0355005E13404D8A02C
:1001180014D001D012D0E60E3424D96E010E352049
:10012800DA6E000EDF6E000E356E000E346E340689
:10013800D8A03506E7D7EFD700D09EC0F5FF9DC001
:10014800F8FF9CC0F7FF9BC0F6FF9AC0F4FF99C068
:10015800F3FF98C0DAFF97C0D9FF96C0E2FF95C0B9
:10016800E1FF94C0EAFF93C0E9FF92C0FBFF91C092
:10017800FAFF90C0E0FF8FC0E8FF8EC0D8FF1000E4
:1001880056EF1EF0000E0101226F000E236F000EC5
:10019800246F000E256FAFC0B1F0010E0001B26FE1
:1001A800000E0001B36F0001B12B04D0D8900001FC
:1001B800B237B3370001B12FF9D7B2C014F1B3C0C9
:1001C80015F10101000E15BFFF0E166F176FFF0E18
:1001D800010114250101046FFF0E01011521010120
:1001E800056FFF0E010116210101066FFF0E0101C7
:1001F80017210101076F000E0001B06F010EAF6FEC
:100208002CD114C126F115C127F116C128F117C147
:1002180029F100D001012935293328332733263322
:1002280001012651010122250001B16F0101275169
:10023800010123210001B26F01012851010124218C
:100248000001B36F01012951010125210001B46F9B
:100258000001B1510101045D0001B25101010559CC
:100268000001B3510101065901010751800A00013B
:10027800B56F0001B451800A0001B559D8A0CAD79A
:10028800FF0E010126250001B16FFF0E0101272194
:100298000001B26FFF0E010128210001B36FFF0EAC
:1002A800010129210001B46F010122510001B1159A
:1002B8000001B56F010123510001B2150001B66FAD
:1002C800010124510001B3150001B76F0101255147
:1002D8000001B4150001B86F010126510001B525D0
:1002E8000101226F010127510001B6210101236F8D
:1002F800010128510001B7210101246F0101295191
:100308000001B8210101256FAFC0B1F0B0C0B2F053
:10031800000E0001B2BFFF0EB36FB46F010122518E
:100328000001B15D010123510001B25901012451BD
:100338000001B3590001B451800A0001B56F0101F1
:100348002551800A0001B559D8B083D001D081D099
:10035800D8900001AF35D96E0001B035DA6E0001D2
:10036800AB51D9260001AC51DA22DECF18F1DDCF2E
:1003780019F1D89001012235D96E01012335DA6EC1
:100388000001AB51D9260001AC51DA22D890000106
:10039800AF35E16E0001B035E26E0001AB51E126E8
:1003A8000001AC51E222DECFE6FFDDCFE5FFD890B9
:1003B80001012235D96E01012335DA6E0001AB51F6
:1003C800D9260001AC51DA2218C1DEFF19C1DDFFC0
:1003D800D8900001AF35D96E0001B035DA6E000152
:1003E800AD51D9260001AE51DA22DECF1AF1DDCFA8
:1003F8001BF1D89001012235D96E01012335DA6E3F
:100408000001AD51D9260001AE51DA22D890000181
:10041800AF35E16E0001B035E26E0001AD51E12665
:100428000001AE51E222DECFE6FFDDCFE5FFD89036
:1004380001012235D96E01012335DA6E0001AD5173
:10044800D9260001AE51DA221AC1DEFF1BC1DDFF39
:1004580000D00001AF4BB02B00D0AFC0B1F0B0C09E
:10046800B2F0000E0001B2BFFF0EB36FB46F00010F
:10047800B1510101045D0001B251010105590001AA
:10048800B3510101065901010751800A0001B56FF6
:100498000001B451800A0001B559D8B0B2D6010E96
:1004A8000101266F000E276F000E286F000E296FBE
:1004B800090E0101006F000E016F000E026F000EA1
:1004C800036F66D3D890010126350101086F010139
:1004D80027350101096F0101283501010A6F010162
:1004E800293501010B6F000E0001B06F000EAF6FD0
:1004F8001CD300C1B1F0AFC0B2F0B0C0B3F000017E
:10050800B12B04D0D8900001B237B3370001B12F16
:10051800F9D7B2C02AF1B3C02BF10101000E2BBFED
:10052800FF0E2C6F2D6F000E0001B16F020E00013F
:10053800B26F2AC1B3F02BC1B4F0D8900001B33721
:10054800B4370001B1510001B3270001B2510001D5
:10055800B423D50E0001B325F66E760EB421F76EDE
:100568000900F5CF10F10A00F5CF11F1D89001017B
:100578002A35F66E01012B35F76ED50EF626760E66
:10058800F7220900F5CFB1F00900F5CFB2F000016C
:10059800B11FB21FB14BB22BB1C012F1B2C013F1EF
:1005A800010111351133103301011335133312339F
:1005B800AFC01EF1B0C01FF10101000E1FBFFF0E3A
:1005C800206F216F96D20101265101011E250101DC
:1005D8002A6F0101275101011F2101012B6F010120
:1005E80028510101202101012C6F0101295101012C
:1005F800212101012D6F10C19FF011C1A0F0000150
:10060800000EA0BFFF0EA16FA26FD89001012A357E
:10061800D96E01012B35DA6E0001AB51D9260001E4
:10062800AC51DA22DECFA3F0DDCFA4F00001000E3A
:10063800A4BFFF0EA56FA66FBFEC1FF09FC02EF1E1
:10064800A0C02FF1A1C030F1A2C031F10E0E0001FF
:10065800B16F2EC1B2F02FC1B3F030C1B4F031C1C7
:10066800B5F00001B16701D009D00001B535B53347
:10067800B433B333B2330001B12FF3D7B2C02EF184
:10068800B3C02FF1B4C030F1B5C031F1010E010192
:100698002E1501011C6F01011D6B2EC1B1F02FC178
:1006A800B2F030C1B3F031C1B4F00001B435B433A5
:1006B800B333B233B13301011C510001B12501013B
:1006C800186F01011D510001B2210101196F12C1FA
:1006D8009FF013C1A0F00001000EA0BFFF0EA16F94
:1006E800A26FD89001012A35D96E01012B35DA6E37
:1006F8000001AD51D9260001AE51DA22DECFA3F0B8
:10070800DDCFA4F00001000EA4BFFF0EA56FA66FF9
:10071800BFEC1FF09FC02EF1A0C02FF1A1C030F197
:10072800A2C031F10E0E0001B16F2EC1B2F02FC17F
:10073800B3F030C1B4F031C1B5F00001B16701D0F8
:1007480009D00001B535B533B433B333B233000142
:10075800B12FF3D7B2C02EF1B3C02FF1B4C030F12E
:10076800B5C031F1010E01012E1501011C6F010107
:100778001D6B2EC1B1F02FC1B2F030C1B3F031C141
:10078800B4F00001B435B433B333B233B13301013B
:100798001C510001B12701011D510001B2230001C4
:1007A800B11FB21FB14BB22B010118510001B12585
:1007B8000101186F010119510001B2210101196FDE
:1007C80010C19FF011C1A0F00001000EA0BFFF0EE4
:1007D800A16FA26FD89001012A35D96E01012B357E
:1007E800DA6E0001AD51D9260001AE51DA22DECF12
:1007F800A3F0DDCFA4F00001000EA4BFFF0EA56F8B
:10080800A66FBFEC1FF09FC02EF1A0C02FF1A1C0B2
:1008180030F1A2C031F10E0E0001B16F2EC1B2F05D
:100828002FC1B3F030C1B4F031C1B5F00001B167E8
:1008380001D009D00001B535B533B433B333B23381
:100848000001B12FF3D7B2C02EF1B3C02FF1B4C05D
:1008580030F1B5C031F1010E01012E1501011C6FF7
:1008680001011D6B2EC1B1F02FC1B2F030C1B3F040
:1008780031C1B4F00001B435B433B333B233B1335A
:1008880001011C510001B12501011A6F01011D511F
:100898000001B22101011B6F12C19FF013C1A0F02A
:1008A8000001000EA0BFFF0EA16FA26FD89001013A
:1008B8002A35D96E01012B35DA6E0001AB51D926E4
:1008C8000001AC51DA22DECFA3F0DDCFA4F00001A5
:1008D800000EA4BFFF0EA56FA66FBFEC1FF09FC050
:1008E8002EF1A0C02FF1A1C030F1A2C031F10E0E3F
:1008F8000001B16F2EC1B2F02FC1B3F030C1B4F016
:1009080031C1B5F00001B16701D009D00001B5359A
:10091800B533B433B333B2330001B12FF3D7B2C018
:100928002EF1B3C02FF1B4C030F1B5C031F1010ED2
:1009380001012E1501011C6F01011D6B2EC1B1F0C3
:100948002FC1B2F030C1B3F031C1B4F00001B435F9
:10095800B433B333B233B13301011C510001B127B1
:1009680001011D510001B22301011A510001B125F5
:1009780001011A6F01011B510001B22101011B6F16
:10098800D89001011E35D96E01011F35DA6E0001BC
:10099800AB51D9260001AC51DA22DECF0CF1DDCF04
:1009A8000DF1D89001011E35D96E01011F35DA6E9F
:1009B8000001AD51D9260001AE51DA22DECF0EF189
:1009C800DDCF0FF101010D350D330C3301010F356A
:1009D8000F330E3318C1B1F019C1B2F00001B11FC5
:1009E800B21FB14BB22B01010C510001B12701011B
:1009F8000D510001B223D89001012A35D96E0101A9
:100A08002B35DA6E0001AB51D9260001AC51DA2240
:100A1800B1C0DEFFB2C0DDFF1AC1B1F01BC1B2F038
:100A28000001B11FB21FB14BB22B01010E510001E1
:100A3800B12701010F510001B223D89001012A35D5
:100A4800D96E01012B35DA6E0001AD51D9260001AE
:100A5800AE51DA22B1C0DEFFB2C0DDFF010118518C
:100A680001010C250001B16F0101195101010D218E
:100A78000001B26FD89001011E35D96E01011F35F2
:100A8800DA6E0001AB51D9260001AC51DA22B1C0AF
:100A9800DEFFB2C0DDFF01011A5101010E25000180
:100AA800B16F01011B5101010F210001B26FD890F4
:100AB80001011E35D96E01011F35DA6E0001AD51F5
:100AC800D9260001AE51DA22B1C0DEFFB2C0DDFF87
:100AD8000101085101011E270101095101011F23CC
:100AE80001010A510101202301010B5101012123B8
:100AF80000D00101145101011E5D010115510101D0
:100B08001F59010116510101205901012151800A83
:100B18000001B16F01011751800A0001B159D8A035
:100B280052D50001AF4BB02B00D0AFC0B1F0B0C070
:100B3800B2F0000E0001B2BFFF0EB36FB46F010137
:100B480026510001B15D010127510001B25901018F
:100B580028510001B3590001B451800A0001B56F52
:100B680001012951800A0001B559D8A0C2D4FF0E4D
:100B780001010027FF0E0123FF0E0223FF0E0323AE
:100B880008C126F109C127F10AC128F10BC129F1D1
:100B9800010114510101265D010115510101275977
:100BA800010116510101285901012951800A00014A
:100BB800B16F01011751800A0001B159D8A082D440
:100BC8001200000E0001DE6F000EDD6F000E000146
:100BD8009F6F010E0001A06FD20E0001A16F010EE0
:100BE8000001A26F06EC21F0140E00019F6F010EA8
:100BF8000001A06F9A0E0001A16F010E0001A26F03
:100C080006EC21F0000E00019F6F010E0001A06F9D
:100C1800140E0001A16F010E0001A26F32EC20F04A
:100C28009FC028F1A0C029F1010128510101291113
:100C3800D8A403D01EEC14F000D0140E00019F6F4E
:100C4800010E0001A06FF50E0001A16F7F0E0001DB
:100C5800A26F06EC21F0000E00019F6F010E00014B
:100C6800A06F140E0001A16F010E0001A26F32ECFB
:100C780020F09FC028F1A0C029F1010128510101ED
:100C88002911D8A4D9D0E60E0001AB6F010E0001DE
:100C9800AC6FFAEC09F01B0E0001AB6F7F0E000180
:100CA800AC6FFAEC09F0860E0001AB6F7D0E000107
:100CB800AC6FFAEC09F000D00001DD510001DE1143
:100CC800D8B4FAD7E60E0001AB6F010E0001AC6F85
:100CD800FAEC09F01B0E0001AB6F7F0E0001AC6F40
:100CE800FAEC09F0D20E0001A56F010E0001A66F03
:100CF800E0EC1BF0A5C05AF0A6C05BF0000E0001A6
:100D0800DE6F000EDD6FE20E0001AB6F7D0E00019D
:100D1800AC6FFAEC09F000D00001DD510001DE11E2
:100D2800D8B4FAD7E60E0001AB6F010E0001AC6F24
:100D3800FAEC09F01B0E0001AB6F7F0E0001AC6FDF
:100D4800FAEC09F0D20E0001A56F010E0001A66FA2
:100D5800E0EC1BF0A5C052F0A6C053F0000E000155
:100D6800DE6F000EDD6FC70E0001AB6F7D0E000158
:100D7800AC6FFAEC09F000D00001DD510001DE1182
:100D8800D8B4FAD7E60E0001AB6F010E0001AC6FC4
:100D9800FAEC09F01B0E0001AB6F7F0E0001AC6F7F
:100DA800FAEC09F0D20E0001A56F010E0001A66F42
:100DB800E0EC1BF0A5C054F0A6C055F0000E0001F1
:100DC800DE6F000EDD6FA80E0001AB6F7D0E000117
:100DD800AC6FFAEC09F000D00001DD510001DE1122
:100DE800D8B4FAD7E60E0001AB6F010E0001AC6F64
:100DF800FAEC09F01B0E0001AB6F7F0E0001AC6F1F
:100E0800FAEC09F0D20E0001A56F010E0001A66FE1
:100E1800E0EC1BF0A5C05CF0A6C05DF0000E000180
:100E2800DE6F000EDD6F970E0001AB6F7E0E0001C6
:100E3800AC6FFAEC09F000D0140E00019F6F010EA0
:100E48000001A06FE20E0001A16F7F0E0001A26FEA
:100E580006EC21F0000E00019F6F010E0001A06F4B
:100E6800140E0001A16F010E0001A26F32EC20F0F8
:100E78009FC028F1A0C029F10101285101012911C1
:100E8800D8A425D0E60E0001AB6F010E0001AC6FAF
:100E9800FAEC09F01B0E0001AB6F7F0E0001AC6F7E
:100EA800FAEC09F0AB0E0001AB6F7E0E0001AC6FDF
:100EB80032C0ADF033C0AEF036C0AFF037C0B0F0DE
:100EC80038C0B1F039C0B2F0FAEC09F000D0140E15
:100ED80000019F6F010E0001A06FE90E0001A16FD4
:100EE8007F0E0001A26F06EC21F0000E00019F6F3B
:100EF800010E0001A06F140E0001A16F010E000188
:100F0800A26F32EC20F09FC028F1A0C029F10101A6
:100F1800285101012911D8A425D0E60E0001AB6F94
:100F2800010E0001AC6FFAEC09F01B0E0001AB6F6B
:100F38007F0E0001AC6FFAEC09F0BF0E0001AB6F39
:100F48007E0E0001AC6FDFC0ADF0E0C0AEF058C05F
:100F5800AFF059C0B0F05EC0B1F05FC0B2F0FAECCB
:100F680009F000D0140E00019F6F010E0001A06F60
:100F7800F00E0001A16F7F0E0001A26F06EC21F0B8
:100F8800000E00019F6F010E0001A06F140E0001FA
:100F9800A16F010E0001A26F32EC20F09FC028F172
:100FA800A0C029F10101285101012911D8A413D0A9
:100FB800FA0E0001AB6F7C0E0001AC6FFAEC09F081
:100FC800E80E52EC22F08A98000E0001DE6F000E47
:100FD800DD6F8A8600D01200000E0001D26F000E6D
:100FE8000001D36F400E0001D46F81EC19F0D2C01C
:100FF800DAF0D3C0DBF0D4C0DCF0000E0001D26F11
:10100800000E0001D36F430E0001D46F81EC19F07C
:10101800D2C0D7F0D3C0D8F0D4C0D9F0E0EC18F0E3
:10102800D7C009F1D8C00AF1D9C00BF121EC1AF0E8
:1010380009C13DF10AC13EF1000E0001AB6F020E7D
:101048000001AC6F000E0001AD6F030E0001AE6F22
:101058003DC1AFF03EC1B0F0C6EC00F0000E01019A
:10106800486F000E476F010148BF0AD0010148517F
:1010780006E1400E0101475DD8B0B7D101D0B5D126
:10108800D89001014735D96E01014835DA6E000E56
:10109800D926020EDA22DECF9FF0DDCFA0F0D8905D
:1010A80001014735D96E01014835DA6E000ED9269F
:1010B800020EDA22DECFA1F0DDCFA2F072EC21F031
:1010C8009FC032F1A0C033F1D89001014735D96EE5
:1010D80001014835DA6E000ED926030EDA22DECF7A
:1010E8009FF0DDCFA0F0D89001014735D96E0101FE
:1010F8004835DA6E000ED926030EDA22DECFA1F0CB
:10110800DDCFA2F072EC21F000019F5101013227DE
:101118000001A05101013323D89001014735D96E50
:1011280001014835DA6E000ED926020EDA2232C1E4
:10113800DEFF33C1DDFF000E0101436F000E446F77
:10114800000E456F400E466F000E01013F6F000E06
:10115800406F000E416F000E426FD8900101473575
:10116800D96E01014835DA6E000ED926020EDA2250
:10117800010EDBAE23D01FD121D0020E0101326F48
:1011880043C133F144C134F145C135F146C136F1AB
:101198000101326701D009D00101363536333533C4
:1011A800343333330101322FF3D733C143F134C120
:1011B80044F135C145F136C146F100D0D89001015E
:1011C8004735D96E01014835DA6E000ED926020E70
:1011D800DA22DECF32F1DDCF33F132C134F133C15F
:1011E80035F1000E010135BFFF0E366F376F010173
:1011F80043510101345D0101445101013559010197
:1012080045510101365901013751800A0101386FF2
:1012180001014651800A01013859D8B0C0D0ADD774
:10122800BED00101435101013F250101326F010187
:101238004451010140210101336F01014551010170
:1012480041210101346F010146510101422101018F
:10125800356FD89001014735D96E01014835DA6EEE
:10126800000ED926020EDA22DECF36F1DDCF37F1B5
:1012780036C138F137C139F1000E010139BFFF0E0F
:101288003A6F3B6F010132510101385D0101335161
:10129800010139590101345101013A5901013B5108
:1012A800800A01013C6F01013551800A01013C5956
:1012B800D8A03ED00101435101013F250101326F01
:1012C80001014451010140210101336FD89001010E
:1012D8004735D96E01014835DA6E000ED926020E5F
:1012E800DA2201013251DE5E3351DD5AD890010114
:1012F80043350101326F010144350101336F0101AA
:1013080045350101346F010146350101356F010191
:10131800325101013F2701013351010140230101ED
:10132800345101014123010135510101422300D00B
:101338003FC132F140C133F141C134F142C135F10D
:1013480001013535353334333333323332C13FF16C
:1013580033C140F134C141F135C142F1020E0101FE
:10136800326F43C133F144C134F145C135F146C14F
:1013780036F10101326701D009D001013635363323
:101388003533343333330101322FF3D733C143F1CB
:1013980034C144F135C145F136C146F100D00101EF
:1013A8004351010144110101451101014611D8B40D
:1013B80002D037D700D0D89001014735D96E010146
:1013C8004835DA6E000ED926020EDA223FC1DEFF5A
:1013D80040C1DDFF0101474B482B010148BF50D6F2
:1013E8000101485102E145D600D01200AD0E0001BE
:1013F800BE6F000E0001BF6FD1D1250E0001C719C5
:10140800D8B405D00001C75179EC22F0C7D1000E3D
:101418000001C66F000EC56F000E0001C26FABC0A1
:10142800F6FFACC0F7FFF86A050EF76403D00800B2
:10143800F55005D0F6CFE9FFF7CFEAFFEF50A6EC5D
:1014480021F0D8A0AAD0000E0001C66F000EC56F0B
:1014580000D0C5C09FF0C6C0A0F0000E0001A26F6A
:101468000A0EA16F72EC21F09FC0C5F0A0C0C6F0B3
:10147800D00E0001B76FFF0E0001B86FABC0F6FFCA
:10148800ACC0F7FFF86A050EF76403D00800F55002
:1014980005D0F6CFE9FFF7CFEAFFEF500001B96FAB
:1014A800BA6B0001B7510001B9270001B85100011A
:1014B800BA230001B9510001C5270001BA51000142
:1014C800C6230001AB4BAC2BABC0F6FFACC0F7FF9B
:1014D800F86A050EF76403D00800F55005D0F6CF7A
:1014E800E9FFF7CFEAFFEF50A6EC21F0D8A055D0DE
:1014F800B0D753D076D17DD00001C5510001C05D71
:101508000001C6510001C159D8B009D00001C0512D
:101518000001C55F0001C1510001C65B0AD0000E81
:101528000001C66F000EC56F04D0200E79EC22F0C2
:1015380000D00001C507D8A0C6070001C529F5E1FC
:101548000001C629D8B40DD0F0D70BD0BBC0D9FF45
:10155800BCC0DAFFDF5079EC22F00001BB4BBC2B9A
:1015680000D00001C007D8A0C1070001C029EEE1E2
:101578000001C129D8B412D1E9D710D1C70E000192
:10158800BB6F000E0001BC6F000E0001C16F010EA1
:10159800C06FB2D70001C28D2CD00001AB51000141
:1015A800B76F0001AC510001B86F0001AB4BAC2B19
:1015B800B7C0F6FFB8C0F7FFF86A050EF76403D0A6
:1015C8000800F55005D0F6CFE9FFF7CFEAFFEF5056
:1015D8000001C76F0001C751000AD8B402D1640ADC
:1015E800D8B407D00D0AD8B404D01C0AD8B4D2D7BE
:1015F800C5D70001C2BD19D0BEC0D9FFBFC0DAFF30
:10160800DECFC3F0DDCFC4F0020E0001BE27000E0E
:10161800BF230001C4AF17D0030E0001C21300019D
:10162800C36DC41FD8B0C42B0ED0BEC0D9FFBFC075
:10163800DAFFDECFC3F0DDCFC4F0020E0001BE2713
:10164800000EBF2300D0010E0001C76F050E000178
:10165800C719D8B41AD001D018D00001C751020D4B
:10166800D50EF324F66E7C0EF420F76E0900F550C3
:101678000001C35D0900F5500001C459D8A005D088
:1016880001D003D00001C72BE1D70001C5510001EB
:10169800C611D8B40CD0C2C0B7F0030E0001B717FA
:1016A800D8B405D00001C507D8A0C60700D0800E61
:1016B8000001C7BF7F0E0001B76F0001C5510001CF
:1016C800C75D0001C651800A0001B759D8B00BD0D8
:1016D8000001C7510001C55F000E0001C7BFFF0E22
:1016E8000001C65B06D0000E0001C66F000EC56F74
:1016F80000D00001C5510001C611D8B40FD0200E8A
:1017080079EC22F00001C507D8A0C6070001C55131
:101718000001C611D8B402D0F2D700D0C2C0B7F0C9
:10172800030E0001B717D8B404D02D0E79EC22F0BF
:1017380000D0C7C0BDF02AD00001BD51020DD50EA2
:10174800F324F66E7C0EF420F76E0900F5CFA1F0B5
:101758000A00F5CFA2F0C3C09FF0C4C0A0F07EEC91
:101768001FF09FC0A6F0A0C0A7F0000E0001A96F4F
:101778000A0EA86FFCEC1FF00001A651300F000103
:10178800C76F0001C75179EC22F000D00001BD07F6
:101798000001BD29D8B402D0CFD700D00001AB5189
:1017A8000001B76F0001AC510001B86F0001AB4BED
:1017B800AC2BB7C0F6FFB8C0F7FFF86A050EF764A0
:1017C80003D00800F55005D0F6CFE9FFF7CFEAFFC0
:1017D800EF500001C76F0001C751D8B402D00DD631
:1017E80000D01200240E0001836F000E0001846FE8
:1017F800BBD1250E00018C19D8B405D000018C513D
:101808008FEC22F0B1D1000E00018B6F000E8A6FB1
:10181800000E0001876F22C0F6FF23C0F7FFF86AA9
:10182800050EF76403D00800F55005D0F6CFE9FFA0
:10183800F7CFEAFFEF500CEC22F0D8A09FD0000EB3
:1018480000018B6F000E8A6F00D08AC016F08BC023
:1018580017F0000E196E0A0E186ED3EC21F016C0A0
:101868008AF017C08BF0D00E246EFF0E256E22C0B2
:10187800F6FF23C0F7FFF86A050EF76403D00800E7
:10188800F55005D0F6CFE9FFF7CFEAFFEF50266E07
:10189800276A2450262625502722265000018A2709
:1018A800275000018B23224A232A22C0F6FF23C097
:1018B800F7FFF86A050EF76403D00800F55005D065
:1018C800F6CFE9FFF7CFEAFFEF500CEC22F0D8A0F3
:1018D80055D0BBD753D066D178D000018A510001CA
:1018E800855D00018B5100018659D8B009D00001EF
:1018F800855100018A5F0001865100018B5B0AD087
:10190800000E00018B6F000E8A6F04D0200E8FEC42
:1019180022F000D000018A07D8A08B0700018A298D
:10192800F5E100018B29D8B40DD0F0D70BD080C0D9
:10193800D9FF81C0DAFFDF508FEC22F00001804B25
:10194800812B00D000018507D8A0860700018529D2
:10195800EEE100018629D8B407D1E9D705D18C0E6C
:101968000001806F000E0001816F000E0001866F7C
:10197800010E856FB2D70001878D27D02250246EC3
:101988002350256E224A232A24C0F6FF25C0F7FFDC
:10199800F86A050EF76403D00800F55005D0F6CFB5
:1019A800E9FFF7CFEAFFEF5000018C6F00018C517F
:1019B800000AD8B4F7D0640AD8B407D00D0AD8B44E
:1019C80004D01C0AD8B4D7D7CAD7000187BD19D00C
:1019D80083C0D9FF84C0DAFFDECF88F0DDCF89F07D
:1019E800020E00018327000E8423000189AF17D05F
:1019F800030E000187130001886D891FD8B0892B59
:101A08000ED083C0D9FF84C0DAFFDECF88F0DDCFE7
:101A180089F0020E00018327000E842300D0010EF6
:101A280000018C6F050E00018C19D8B41AD001D0B2
:101A380018D000018C51020DD50EF324F66E7C0EE1
:101A4800F420F76E0900F5500001885D0900F55093
:101A580000018959D8A005D001D003D000018C2BF2
:101A6800E1D700018A5100018B11D8B40BD087C08F
:101A780024F0030E2416D8B405D000018A07D8A094
:101A88008B0700D0800E00018CBF7F0E246E0001F2
:101A98008A5100018C5D00018B51800A2458D8B00E
:101AA8000BD000018C5100018A5F000E00018CBF31
:101AB800FF0E00018B5B06D0000E00018B6F000E3D
:101AC8008A6F00D000018A5100018B11D8B40FD061
:101AD800200E8FEC22F000018A07D8A08B070001A6
:101AE8008A5100018B11D8B402D0F2D700D087C038
:101AF80024F0030E2416D8B404D02D0E8FEC22F057
:101B080000D08CC082F028D000018251020DD50E81
:101B1800F324F66E7C0EF420F76E0900F5CF18F06A
:101B28000A00F5CF19F088C016F089C017F061ECEB
:101B380020F016C01DF017C01EF0000E206E0A0E11
:101B48001F6EBAEC20F01D50300F00018C6F0001A1
:101B58008C518FEC22F000D000018207000182290D
:101B6800D8B402D0D1D700D02250246E2350256E8D
:101B7800224A232A24C0F6FF25C0F7FFF86A050E7B
:101B8800F76403D00800F55005D0F6CFE9FFF7CF8A
:101B9800EAFFEF5000018C6F00018C51D8B402D0DD
:101BA80028D600D0120021EE66F010EEB1F0070E34
:101BB800DBCFE3FFE806FCE2000E0001C26F800EF7
:101BC800C16F000E0001BC6F000EBB6F000E00015C
:101BD800C66F020EC56F45D1000E0001C06F000E22
:101BE800BF6F010E0001C5250001A56F000E0001A1
:101BF800C6210001A66F0001A6BF08D00001A651AA
:101C080048E1040E0001A55DD8B043D0C5C0BDF0C1
:101C1800C6C0BEF0000E0001BA6F000EB96F000119
:101C2800BEBFAED001D0ACD0D8900001B935D96EC6
:101C38000001BA35DA6EB10ED926000EDA22DECFEF
:101C48009FF0DDCFA0F0D8900001BD35D96E00011E
:101C5800BE35DA6E000ED926020EDA22DECFA1F0EA
:101C6800DDCFA2F072EC21F00001BF5100019F25E9
:101C78000001BF6F0001C0510001A0210001C06F29
:101C88000001B94BBA2B0001BD07D8A0BE07C7D7C2
:101C980077D0000E0001C46F000EC36F0001C4BFEF
:101CA8000AD00001C4516CE1040E0001C35DD8B034
:101CB80067D001D065D0C3C0A5F0C4C0A6F00001AC
:101CC800A51FA61FA54BA62B0001C5510001A527DE
:101CD8000001C6510001A6230001C1510001A55D04
:101CE8000001A651800A0001A76F0001C251800AB5
:101CF8000001A759D8B03FD0D8900001C335D96E9C
:101D08000001C435DA6EB10ED926000EDA22DECF14
:101D18009FF0DDCFA0F0C3C0A5F0C4C0A6F00001BD
:101D2800A51FA61FA54BA62B0001C5510001A5277D
:101D38000001C6510001A623D8900001A537A63797
:101D4800000E0001A525D96E020E0001A621DA6E4B
:101D5800DECFA1F0DDCFA2F072EC21F00001BF517F
:101D680000019F250001BF6F0001C0510001A021A3
:101D78000001C06F00D00001C34BC42B8FD700D027
:101D88000001C6BF66D00001C65105E1030E00017F
:101D9800C55DD8A05ED0BBC0A5F0BCC0A6F0000150
:101DA800A51FA61FA54BA62BFA0E0001A76FFF0EB5
:101DB8000001A86FC5C0A9F0C6C0AAF0D89000015C
:101DC800A937AA370001A7510001A9270001A85186
:101DD8000001AA23000E0001A925D96E020E0001F8
:101DE800AA21DA6EDECFABF0DDCFACF00001D890DF
:101DF800AB37AC370001D890AB37AC370001A551F1
:101E08000001AB270001A6510001AC23FA0E000126
:101E1800AD6FFF0E0001AE6FC5C0AFF0C6C0B0F029
:101E2800D8900001AF37B0370001AD510001AF279E
:101E38000001AE510001B023000E0001AF25D96E9C
:101E4800020E0001B021DA6EABC0DEFFACC0DDFFD0
:101E580000D0BFC0BBF0C0C0BCF00001C54BC62B52
:101E680000D0020E0001C1250001A56F000E00017F
:101E7800C2210001A66F0001A5510001C55D000146
:101E8800C651800A0001A76F0001A651800A00010F
:101E9800A759D8A0A1D6BBC0A5F0BCC0A6F0000128
:101EA800A51FA61FA54BA62BFE0E0001A76FFF0EB0
:101EB8000001A86FC1C0A9F0C2C0AAF0D890000163
:101EC800A937AA370001A7510001A9270001A85185
:101ED8000001AA23000E0001A925D96E020E0001F7
:101EE800AA21DA6EDECFABF0DDCFACF00001D890DE
:101EF800AB37AC370001D890AB37AC370001A551F0
:101F08000001AB270001A6510001AC23FE0E000121
:101F1800AD6FFF0E0001AE6FC1C0AFF0C2C0B0F030
:101F2800D8900001AF37B0370001AD510001AF279D
:101F38000001AE510001B023000E0001AF25D96E9B
:101F4800020E0001B021DA6EABC0DEFFACC0DDFFCF
:101F580012002DBE06D02D5030E1800E2C5CD8B07A
:101F68002CD0540E0001AB6F7F0E0001AC6F40C047
:101F7800ADF041C0AEF042C0AFF043C0B0F044C0D5
:101F8800B1F045C0B2F03EC0B3F03FC0B4F0FAECD7
:101F980009F0D8902C34D96E2D34DA6E000ED9267B
:101FA800020EDA2242C0DEFF43C0DDFF010E2C2400
:101FB8002C6E000E2D202D6E83D1FC0E0001AB6F10
:101FC8007D0E0001AC6FFAEC09F0660E0001AB6FF4
:101FD8007F0E0001AC6FFAEC09F0000E0101526FA0
:101FE800000E516F010152BF0AD00101525136E172
:101FF800800E0101515DD8B031D001D02FD0940EA0
:102008000001AB6F7F0E0001AC6F51C1ADF052C142
:10201800AEF0D89001015135D96E01015235DA6E12
:10202800000ED926020EDA22DECFAFF0DDCFB0F0F7
:10203800D89001015135D96E01015235DA6E000E82
:10204800D926030EDA22DECFB1F0DDCFB2F0FAECFA
:1020580009F00101514B522BC5D700D0E60E000103
:10206800AB6F7E0E0001AC6FFAEC09F0D7EC0DF007
:10207800000E01014C6F000E4B6F01014CBF0AD0DE
:1020880001014C5127E1800E01014B5DD8B022D0EF
:1020980001D020D0D90E0001AB6F7F0E0001AC6FCC
:1020A8004BC1ADF04CC1AEF0D89001014B35D96EA3
:1020B80001014C35DA6E000ED926020EDA22DECF87
:1020C800AFF0DDCFB0F0FAEC09F001014B4B4C2B2F
:1020D800D4D700D0F90E0001AB6F7E0E0001AC6FB3
:1020E800FAEC09F0F0EC07F0000E01014E6F000E5B
:1020F8004D6F01014EBF0AD001014E5127E1400E3C
:1021080001014D5DD8B022D001D020D0D90E0001F8
:10211800AB6F7F0E0001AC6F4DC1ADF04EC1AEF09C
:10212800D89001014D35D96E01014E35DA6E000E99
:10213800D926020EDA22DECFAFF0DDCFB0F0FAEC0E
:1021480009F001014D4B4E2BD4D700D0160E0001DB
:10215800AB6F7E0E0001AC6FFAEC09F070C12EF087
:1021680071C12FF0C40E0001AB6F7F0E0001AC6F80
:10217800000E0001AE6F010EAD6F70C1AFF071C1FE
:10218800B0F02EC0B1F02FC0B2F0FAEC09F0000E9A
:102198000101506F010E4F6F000E01014A6F020ED0
:1021A800496F010150BF0AD00101505168E1150E75
:1021B80001014F5DD8B063D001D061D0D890010142
:1021C8004935D96E01014A35DA6E000ED926020E5C
:1021D800DA22DECF9FF0DDCFA0F0D89001014F3595
:1021E800D96E01015035DA6E700ED926010EDA2249
:1021F800DECFA1F0DDCFA2F072EC21F02E5000016D
:102208009F252E6E2F500001A0212F6EC40E0001B5
:10221800AB6F7F0E0001AC6FD89001014935D96EC4
:1022280001014A35DA6E000ED926020EDA22DECF17
:10223800ADF0DDCFAEF0D89001014F35D96E010178
:102248005035DA6E700ED926010EDA22DECFAFF0E5
:10225800DDCFB0F02EC0B1F02FC0B2F0FAEC09F02B
:1022680001014F4B502B030E010149250101496F14
:10227800000E01014A2101014A6F93D700D0430E95
:102288000001AB6F7E0E0001AC6F40C0ADF041C0E5
:10229800AEF042C0AFF043C0B0F044C0B1F045C0AA
:1022A800B2F03EC0B3F03FC0B4F02EC0B5F02FC0BE
:1022B800B6F0FAEC09F0000E2D6E000E2C6E00D070
:1022C8001200FC0E926E9396939894908B908A8845
:1022D8008A861DEC22F070EC22F096EC22F088EC55
:1022E80022F009D061EC16F05AEC17F0A3C056F0B2
:1022F800A4C057F000D056505710D8A4F3D78AB6C8
:1023080009D0375004E10B0E365CD8A003D08A867A
:102318008A9800D061EC16F05AEC17F0A3C056F07A
:10232800A4C057F056505710D8B43AD18AA6B2D0A4
:102338008B80C80E2DEC22F0C80E2DEC22F0C80EB2
:102348002DEC22F02BBE06D02B5034E10A0E2A5C6D
:10235800D8B030D050505110D8B419D02A4A2B2AAE
:10236800000E516E000E506E1E0E0001AB6F7F0EF8
:102378000001AC6F2AC0ADF02BC0AEF0FAEC09F04A
:10238800C80E2DEC22F0C80E2DEC22F000D0580E0D
:102398000001AB6F7E0E0001AC6F2AC0ADF02BC000
:1023A800AEF0FAEC09F0C80E2DEC22F0C80E2DECB8
:1023B80022F070D02BBE06D02B5034E1640E2A5C7C
:1023C800D8B030D050505110D8B419D02A4A2B2A3E
:1023D800000E516E000E506E300E0001AB6F7F0E76
:1023E8000001AC6F2AC0ADF02BC0AEF0FAEC09F0DA
:1023F800C80E2DEC22F0C80E2DEC22F000D06D0E88
:102408000001AB6F7E0E0001AC6F2AC0ADF02BC08F
:10241800AEF0FAEC09F0C80E2DEC22F0C80E2DEC47
:1024280022F038D02BBE06D0E80E2A5C030E2B58BB
:10243800D8B030D050505110D8B419D02A4A2B2ACD
:10244800000E516E000E506E420E0001AB6F7F0EF3
:102458000001AC6F2AC0ADF02BC0AEF0FAEC09F069
:10246800C80E2DEC22F0C80E2DEC22F000D0820E02
:102478000001AB6F7E0E0001AC6F2AC0ADF02BC01F
:10248800AEF0FAEC09F0C80E2DEC22F0C80E2DECD7
:1024980022F000D00C0E0001AB6F7F0E0001AC6F74
:1024A800FAEC09F0B10E0001AB6F7E0E0001AC6FC3
:1024B80032C0ADF033C0AEF036C0AFF037C0B0F0C8
:1024C80038C0B1F039C0B2F0FAEC09F0770E00016B
:1024D800AB6F7F0E0001AC6FDFC0ADF0E0C0AEF0B7
:1024E80058C0AFF059C0B0F05EC0B1F05FC0B2F0F4
:1024F800FAEC09F00BD061EC16F0ADEC0FF05AECE9
:1025080017F0A3C056F0A4C057F000D0565057108B
:10251800D8A4F1D7D30E0001AB6F7E0E0001AC6FCB
:10252800FAEC09F0B10E0001AB6F7E0E0001AC6F42
:1025380032C0ADF033C0AEF036C0AFF037C0B0F047
:1025480038C0B1F039C0B2F0FAEC09F0770E0001EA
:10255800AB6F7F0E0001AC6FDFC0ADF0E0C0AEF036
:1025680058C0AFF059C0B0F05EC0B1F05FC0B2F073
:10257800FAEC09F0FA0E0001AB6F7F0E0001AC6FA8
:10258800FAEC09F0C80E2DEC22F0C80E2DEC22F062
:102598008B90C80E2DEC22F0C80E2DEC22F000D046
:1025A8000001DD050001DE11D8A4A9D6E5EC05F08F
:1025B800A6D6C4EF00F0BCC0C0F00001C16BC26B6E
:1025C8000001BB350001C03701E3C1810001C051E2
:1025D8000001C56FBFC0C0F00001C16BC26B000134
:1025E800BE350001C03701E3C1810001C0510001BF
:1025F800C46F0001C5510001D8B411D00001C45105
:102608000001C55DD8B012D00001C5510008000115
:10261800C4250001C06F180E0001C06507D0BDC0F9
:10262800BAF0BEC0BBF0BFC0BCF003D10001C451BA
:102638000001D8B411D00001C5510001C45DD8B063
:1026480012D00001C45100080001C5250001C06F67
:10265800180E0001C06507D0BAC0BAF0BBC0BBF005
:10266800BCC0BCF0E6D0060E0001C36F0001BCAFD1
:1026780003D00001C38F00D00001BFAF02D000011A
:10268800C38D0001BB8FFF0E0001BA17FF0E0001BA
:10269800BB17000E0001BC170001BE8FFF0E000122
:1026A800BD17FF0E0001BE17000E0001BF17000185
:1026B800C4510001C55DD8B028D00001D890BD37FD
:1026C800BE37BF370001C4070001C5510001C41956
:1026D800D8B413D00001C307C3C0C0F0070E00016F
:1026E800C017D8B40AD0E9D708D00001D890BC33B5
:1026F800BB33BA330001C52B00D00001C45100011F
:10270800C519D8B430D0F1D72ED00001C551000179
:10271800C45DD8B028D00001D890BA37BB37BC37D1
:102728000001C5070001C5510001C419D8B413D070
:102738000001C307C3C0C0F0070E0001C017D8B41A
:102748000AD0E9D708D00001D890BF33BE33BD33D3
:102758000001C42B00D00001C4510001C519D8B430
:1027680002D0F1D700D00001C3AF12D0FF0E000194
:10277800BA1BFF0E0001BB1BFF0E0001BC1B010EA4
:102788000001BA27000E0001BB23000E0001BC2384
:102798000001C3AD13D0FF0E0001BD1BFF0E0001E9
:1027A800BE1BFF0E0001BF1B010E0001BD27000E5E
:1027B8000001BE23000E0001BF2300D0000E00015F
:1027C800C36F0001BA510001BD270001BB510001D0
:1027D800BE230001BC510001BF230001BFAF16D0CA
:1027E800FF0E0001BD1BFF0E0001BE1BFF0E000106
:1027F800BF1B010E0001BD27000E0001BE23000E05
:102808000001BF23010E0001C36F00D0BDC09FF0BF
:10281800BEC0A0F0BFC0A1F0C5C0A2F0C3C0A3F065
:1028280050EC1BF09FC0BAF0A0C0BBF0A1C0BCF038
:1028380000D01200B90E0001AB6F7F0E0001AC6F23
:10284800FAEC09F000D00001DD510001DE11D8B426
:10285800FAD7E60E0001AB6F010E0001AC6FFAEC7F
:1028680009F01B0E0001AB6F7F0E0001AC6FFAEC94
:1028780009F0D20E0001A56F010E0001A66FE0EC71
:102888001BF0A5C05EF0A6C05FF0000E0001DE6F71
:10289800000EDD6FA10E0001AB6F7F0E0001AC6F63
:1028A800FAEC09F000D00001DD510001DE11D8B4C6
:1028B800FAD7E60E0001AB6F010E0001AC6FFAEC1F
:1028C80009F01B0E0001AB6F7F0E0001AC6FFAEC34
:1028D80009F0D20E0001A56F010E0001A66FE0EC11
:1028E8001BF0A5C058F0A6C059F0000E0001DE6F1D
:1028F800000EDD6FCF0E0001AB6F7F0E0001AC6FD5
:10290800FAEC09F000D00001DD510001DE11D8B465
:10291800FAD7E60E0001AB6F010E0001AC6FFAECBE
:1029280009F01B0E0001AB6F7F0E0001AC6FFAECD3
:1029380009F0D20E0001A56F010E0001A66FE0ECB0
:102948001BF0A5C0DFF0A6C0E0F0000E0001DE6FAE
:10295800000EDD6FAD0E0001AB6F7F0E0001AC6F96
:10296800FAEC09F000D00001DD510001DE11D8B405
:10297800FAD7E60E0001AB6F010E0001AC6FFAEC5E
:1029880009F01B0E0001AB6F7F0E0001AC6FFAEC73
:1029980009F0D20E0001A56F010E0001A66FE0EC50
:1029A8001BF0A5C032F0A6C033F0000E0001DE6FA8
:1029B800000EDD6F860E0001AB6F7F0E0001AC6F5D
:1029C800FAEC09F000D00001DD510001DE11D8B4A5
:1029D800FAD7E60E0001AB6F010E0001AC6FFAECFE
:1029E80009F01B0E0001AB6F7F0E0001AC6FFAEC13
:1029F80009F0D20E0001A56F010E0001A66FE0ECF0
:102A08001BF0A5C036F0A6C037F0000E0001DE6F3F
:102A1800000EDD6F000E396E000E386E2E0E0001AE
:102A2800AB6F7E0E0001AC6FFAEC09F0BF0E00012F
:102A3800AB6F7E0E0001AC6FDFC0ADF0E0C0AEF052
:102A480058C0AFF059C0B0F05EC0B1F05FC0B2F08E
:102A5800FAEC09F0AB0E0001AB6F7E0E0001AC6F13
:102A680032C0ADF033C0AEF036C0AFF037C0B0F012
:102A780038C0B1F039C0B2F0FAEC09F0000E516E6E
:102A8800010E506E000E01016F6F010E6E6F120085
:102A98000600EACF0BF0E1CF0CF0E2CF0DF0D9CF72
:102AA8000EF0DACF0FF0F3CF10F0F4CF11F0F6CF2D
:102AB80012F0F7CF13F0F8CF14F0F5CF15F0030E9E
:102AC800D76EF90ED66E304A312A3E0E30183110C4
:102AD800D8A4D5D0000E316E000E306E384A392A8F
:102AE800395004E13C0E385CD8A0C9D0000E396ECC
:102AF800000E386E364A372A0101CA050101CB118A
:102B0800D8A415D0FF0E2824286EFF0E2920296E80
:102B180028502910D8A40BD0000E0101CB6F000E4D
:102B2800CA6F000E0101CD6F000ECC6F00D0375078
:102B380004E13C0E365CD8A0A2D0000E376E000E21
:102B4800366E324A332A335004E1180E325CD8A06C
:102B580096D0000E336E000E326E0001DF4BE02B74
:102B6800000E516E010E506E5CD000D0200E000198
:102B7800DF190001E011D8A482D0000E0001E06F37
:102B8800010EDF6F09D0000E01016F6F010E6E6F2D
:102B980076D000D01F0EEBD7584A592AF4D76FD0F9
:102BA800030E5E14066E000E5F14076E06500710C3
:102BB800D8A41ED05EC001F05FC002F0000E046E03
:102BC800190E036EE0EC20F001500210D8A40AD0D0
:102BD8000F0E5E14066E000E5F14076E0650071087
:102BE800D8A406D01E0EC3D7584A592ACCD747D0E6
:102BF8001D0EBDD7584A592AC6D741D0200E00010C
:102C0800DF190001E011D8A43AD0000E0001E06FEE
:102C1800010EDF6F000E596E010E586E5E4A5F2A74
:102C28002ED058C006F059C007F00750000AD8A4A3
:102C380026D00650010AD8B499D7030AD8B4B0D719
:102C4800010AD8B493D7070AD8B4A4D7010AD8B4CC
:102C58008DD7030AD8B49ED7010AD8B487D70F0AEC
:102C6800D8B484D7010AD8B495D7030AD8B47ED784
:102C7800010AD8B48FD7070AD8B4C0D700D0F294C5
:102C880015C0F5FF14C0F8FF13C0F7FF12C0F6FF18
:102C980011C0F4FF10C0F3FF0FC0DAFF0EC0D9FF58
:102CA8000DC0E2FF0CC0E1FF0BC0EAFF0AC0E9FF5C
:102CB80009C0FBFF08C0FAFF11004DC018F14EC053
:102CC80019F14FC01AF14AC01BF14BC01CF14CC09E
:102CD8001DF19BEC1DF018C140F019C141F04DC029
:102CE80018F14EC019F14FC01AF14AC01BF14BC080
:102CF8001CF14CC01DF137EC1DF018C142F019C190
:102D080043F04DC018F14EC019F14FC01AF14AC036
:102D18001BF14BC01CF14CC01DF1D3EC1CF018C1C9
:102D280044F019C145F0B2C1ADF0B3C1AEF0B4C1C1
:102D3800AFF0B5C1B0F040C0B1F041C0B2F0000191
:102D4800000EB2BFFF0EB36FB46F52C0B5F053C0E0
:102D5800B6F0AAEC1EF0ADC0B2F1AEC0B3F1AFC090
:102D6800B4F1B0C0B5F1BAC1ADF0BBC1AEF0BCC1F1
:102D7800AFF0BDC1B0F042C0B1F043C0B2F0000145
:102D8800000EB2BFFF0EB36FB46F52C0B5F053C0A0
:102D9800B6F0AAEC1EF0ADC0BAF1AEC0BBF1AFC040
:102DA800BCF1B0C0BDF1C2C1ADF0C3C1AEF0C4C189
:102DB800AFF0C5C1B0F044C0B1F045C0B2F00001F9
:102DC800000EB2BFFF0EB36FB46F52C0B5F053C060
:102DD800B6F0AAEC1EF0ADC0C2F1AEC0C3F1AFC0F0
:102DE800C4F1B0C0C5F1B6C1ADF0B7C1AEF0B8C15D
:102DF800AFF0B9C1B0F040C0B1F041C0B2F00001CD
:102E0800000EB2BFFF0EB36FB46F54C0B5F055C01B
:102E1800B6F0AAEC1EF0ADC0B6F1AEC0B7F1AFC0C7
:102E2800B8F1B0C0B9F1BEC1ADF0BFC1AEF0C0C11C
:102E3800AFF0C1C1B0F042C0B1F043C0B2F0000180
:102E4800000EB2BFFF0EB36FB46F54C0B5F055C0DB
:102E5800B6F0AAEC1EF0ADC0BEF1AEC0BFF1AFC077
:102E6800C0F1B0C0C1F1C6C1ADF0C7C1AEF0C8C1B4
:102E7800AFF0C9C1B0F044C0B1F045C0B2F0000134
:102E8800000EB2BFFF0EB36FB46F54C0B5F055C09B
:102E9800B6F0AAEC1EF0ADC0C6F1AEC0C7F1AFC027
:102EA800C8F1B0C0C9F1FAEC1EF01200010E5A24A4
:102EB8000001A56F000E5B200001A66F0001A76B43
:102EC8000001A86B0101AE510001A55D0101AF51E0
:102ED8000001A6590101B0510001A7590101B151E2
:102EE8000001A859D8B010D0010E5A240001A56FCE
:102EF800000E5B200001A66FA5C0AEF1A6C0AFF121
:102F08000101B06BB16B00D0B6C1A5F0B7C1A6F096
:102F18000001A51FA61FA54BA62B0101B251000158
:102F2800A52500019F6F0101B3510001A6210001F1
:102F3800A06FBDEC21F000019F515C5C5D50800AE0
:102F48000001A76F0001A051800A0001A759D8A06D
:102F58004AD0BEC1A5F0BFC1A6F00001A51FA61F9B
:102F6800A54BA62B0101BA510001A52500019F6FB1
:102F78000101BB510001A6210001A06FBDEC21F0A9
:102F880000019F515C5C5D50800A0001A76F000141
:102F9800A051800A0001A759D8A025D0C6C1A5F024
:102FA800C7C1A6F00001A51FA61FA54BA62B0101AE
:102FB800C2510001A52500019F6F0101C351000105
:102FC800A6210001A06FBDEC21F000019F515C5CBF
:102FD8005D50800A0001A76F0001A051800A00011E
:102FE800A759D8B00BD0000E0101AE6F000EAF6F1D
:102FF800000EB06F000EB16F2AD02FD05A500001CA
:10300800A56F5B500001A66F0001A76B0001A86BBC
:103018000101AE510001A55D0101AF510001A659A2
:103028000101B0510001A7590101B1510001A8598E
:10303800D8B006D0000E0001A46F000E0CD00DD041
:10304800010E0101AE27000EAF23B023B123000EFD
:103058000001A46F010EA36F00D01200ADC0B1F043
:103068000001B26BB36B0001AC350001B13701E36D
:10307800B2810001B1510001B46F0001B451D8A46C
:1030880002D014D098D0B0C0B1F00001B26BB36BCD
:103098000001AF350001B13701E3B2810001B15140
:1030A8000001B96F0001B951D8A40AD0000E00017F
:1030B800AB6F000E0001AC6F000E0001AD6F7BD04E
:1030C8000001B9517B0F0001B427ADC0B9F0000170
:1030D800B0510001B91B800E0001B9170001AC8F77
:1030E8000001AF8FFF0E0001AE17FF0E0001AF17F2
:1030F800000E0001B017000E0001B56F000E0001B0
:10310800B66F000E0001B76F070E0001B86F00D050
:103118000001ABA10DD00001AE510001B52700019F
:10312800AF510001B6230001B0510001B72300D010
:103138000001D890AD33AC33AB330001D890AE3733
:10314800AF37B0370001B82FE3D700D0090E000120
:10315800B86F00D00001ABA10DD00001AE51000145
:10316800B5270001AF510001B6230001B05100019D
:10317800B72300D00001D890AD33AC33AB33000196
:10318800D890B733B633B5330001B82FE3D700D0A2
:10319800B5C09FF0B6C0A0F0B7C0A1F0B4C0A2F00F
:1031A800B9C0A3F050EC1BF09FC0ABF0A0C0ACF0CE
:1031B800A1C0ADF000D01200D9C000F10101016B2F
:1031C800026B0001D8350101003701E301810101DB
:1031D80000510101076F01010751D8A402D014D092
:1031E8008BD0DCC000F10101016B026B0001DB3503
:1031F8000101003701E30181010100510101086F5C
:1032080001010851D8A40AD0000E0001D76F000EA2
:103218000001D86F000E0001D96F6ED0000E0101B9
:10322800046F000E0101056F000E0101066F010118
:103238000851890F0101075FD9C008F10001DC516D
:103248000101081B800E010108170001D88FFF0E2D
:103258000001D717FF0E0001D817000E0001D9177B
:103268000001DB8FFF0E0001DA17FF0E0001DB17EC
:10327800000E0001DC17180E0101036F00D00101D8
:10328800D8900437053706370001DA510001D75DB9
:103298000001DB510001D8590001DC510001D95966
:1032A800D8A00ED00001DA510001D75F0001DB5130
:1032B8000001D85B0001DC510001D95B01010481E8
:1032C8000001D890D737D837D9370101032FD7D77E
:1032D80000D004C19FF005C1A0F006C1A1F007C14C
:1032E800A2F008C1A3F050EC1BF09FC0D7F0A0C01B
:1032F800D8F0A1C0D9F000D012000001D4AF06D098
:10330800000E0101CF6F210E0DD096D00001D251D1
:103318000001D3110001D411D8A40FD0000E01016F
:10332800CF6F220ECE6F000E0001D26F000E00018B
:10333800D36F000E0001D46F7FD0000E0001AE6F76
:10334800000E0001AF6F400E0001B06FD50E0001F6
:10335800A26F000E0001A36FD2C09FF0D3C0A0F0EF
:10336800D4C0A1F0FFEC1DF09FC0ABF0A0C0ACF042
:10337800A1C0ADF032EC18F0ABC0BAF0ACC0BBF0F5
:10338800ADC0BCF0000E0001BD6F800E0001BE6F25
:10339800BF0E0001BF6FDFEC12F0BAC0D2F0BBC0A5
:1033A800D3F0BCC0D4F00001D507D8A0D607D2C04E
:1033B800C6F0D3C0C7F0D4C0C8F0DF0E0001C96F93
:1033C8007C0E0001CA6F000E0001CC6F080ECB6F97
:1033D8005CEC1CF0C6C0D2F0C7C0D3F0C8C0D4F0B3
:1033E800720E0001AE6F310E0001AF6F3F0E00018B
:1033F800B06FD5C0A7F0D6C0A8F02BEC21F0A7C0BD
:10340800ABF0A8C0ACF0A9C0ADF032EC18F0ABC07E
:10341800BAF0ACC0BBF0ADC0BCF0D2C0BDF0D3C0F8
:10342800BEF0D4C0BFF0DFEC12F0BAC0D2F0BBC01F
:10343800D3F0BCC0D4F000D012000BC10DF10101D3
:103448000E6B0F6B01010A3501010D3701E30E8187
:1034580001010D510101176F01011751D8A402D0C4
:1034680051D083D0170E01010D6F09C10EF10AC1A9
:103478000FF10BC110F101010D290101116F05D0E8
:103488000101D89010330F330E330101112FF8D7F3
:1034980001010E510101126F01010A8FFF0E010196
:1034A8000917FF0E01010A17000E01010B17010190
:1034B80009510101136F01010A510101146F010142
:1034C8000B510101156F0101166B8E0E0101175F7B
:1034D800010117AF13D001011751800A8F0FD8B01F
:1034E80003D010D042D000D00101D8901633153344
:1034F800143313330101173FF7D71FD0170E0101FB
:10350800176514D0000E0101096F000E0A6F000E36
:103518000B6F000E0C6F29D009D00101D89013371A
:103528001437153716370101170700D00101175155
:103538000101D8B402D0F1D700D001011251010124
:10354800D8B40AD00101161F151F141F136D000EE1
:1035580014231523162300D013C109F114C10AF14D
:1035680015C10BF116C10CF100D01200000E0001BC
:10357800A86F0001A6AF0DD00001A61FA51FA41FAC
:10358800A36D000EA423A523A623010E0001A86F96
:1035980000D00001A2AF0DD00001A21FA11FA01FE3
:1035A8009F6D000EA023A123A223010E0001A81BDA
:1035B80000D0000E0001A96F000EAA6F000EAB6FBD
:1035C800000EAC6F0001A3510001A4110001A51168
:1035D8000001A611D8B447D0010E0001A76F09D089
:1035E8000001D890A337A437A537A6370001A72B29
:1035F80000D00001A6BF02D0F3D700D00001D890B8
:10360800A937AA37AB37AC370001A35100019F5D3A
:103618000001A4510001A0590001A5510001A159C0
:103628000001A6510001A259D8A013D00001A3514E
:1036380000019F5F0001A4510001A05B0001A5519A
:103648000001A15B0001A6510001A25B0001A98154
:1036580000D00001D890A633A533A433A3330001CA
:10366800A72FCCD700D00001A8510001D8B40AD0A8
:103678000001AC1FAB1FAA1FA96D000EAA23AB2324
:10368800AC2300D0A9C09FF0AAC0A0F0ABC0A1F0A5
:10369800ACC0A2F000D012000001A2510001D8B4C1
:1036A80008D000019F510001A0110001A111D8A468
:1036B80013D0000E00019F6F000E0001A06F000ED6
:1036C8000001A16F78D008D00001A22B0001D8908A
:1036D800A133A0339F3300D0000E00019F150001D5
:1036E800A46F000E0001A0150001A56FFE0E0001D9
:1036F800A1150001A66F0001A4510001A511000148
:10370800A611D8B413D0E0D711D00001A22B010E16
:1037180000019F27000E0001A023000E0001A12335
:103728000001D890A133A0339F3300D0000E0001D0
:103738009F150001A46F000E0001A0150001A56FE0
:10374800FF0E0001A1150001A66F0001A4510001A0
:10375800A5110001A611D8B40AD0D7D708D0000106
:10376800A2070001D8909F37A037A13700D00001E9
:10377800A0BF05D0020E0001A261F1D700D0000160
:10378800A2B103D00001A09F00D00001D890A233BD
:103798000001A2510001A1130001A3510001D8B4F6
:1037A80003D00001A18F00D09FC09FF0A0C0A0F05F
:1037B800A1C0A1F000D0120004D00001A54BA62B97
:1037C80000D0A5C0D9FFA6C0DAFF200EDE18D8B4F5
:1037D800F4D7A5C0D9FFA6C0DAFF090EDE18D8B401
:1037E800ECD7000E0001AB6F000EAA6F000E0001AF
:1037F800A96FA5C0D9FFA6C0DAFF2D0EDE18D8A480
:1038080003D00001A92B2FD0A5C0D9FFA6C0DAFF8D
:103818002B0EDE18D8A42BD026D029D0AAC09FF012
:10382800ABC0A0F0000E0001A26F0A0EA16F72ECEF
:1038380021F0A5C0D9FFA6C0DAFFDF500001A76FAD
:10384800A86B00019F510001A7270001A0510001AA
:10385800A823D00E0001A7250001AA6FFF0E0001C2
:10386800A8210001AB6F0001A54BA62B00D0A5C075
:10387800D9FFA6C0DAFFDF50A6EC21F0D8B0CED72A
:103888000001A9510001D8B40ED0AAC0A7F0ABC05E
:10389800A8F00001A71FA81FA74BA82BA7C0A5F039
:1038A800A8C0A6F004D0AAC0A5F0ABC0A6F012002C
:1038B800CBC09FF0CCC0A0F0000E0001A26F030E99
:1038C800A16F72EC21F0C9C0CDF0CAC0CEF00001E2
:1038D8009F510001CD270001A0510001CE23CDC08A
:1038E800F6FFCEC0F7FF0900F5CFCFF00900F5CFFE
:1038F800D0F00A00F5CFD1F045D0CFC0AEF0D0C09F
:10390800AFF0D1C0B0F0C6C0ABF0C7C0ACF0C8C013
:10391800ADF032EC18F0ABC0BAF0ACC0BBF0ADC043
:10392800BCF0000E0001A26F030EA16F0001CB07CF
:10393800D8A0CC07CBC09FF0CCC0A0F072EC21F08F
:10394800C9C0CDF0CAC0CEF000019F510001CD27FB
:103958000001A0510001CE23CDC0F6FFCEC0F7FF75
:103968000900F5CFBDF00900F5CFBEF00A00F5CF8C
:10397800BFF0DFEC12F0BAC0CFF0BBC0D0F0BCC0D3
:10398800D1F000D00001CB510001CC11D8A4B5D79B
:10399800CFC0C6F0D0C0C7F0D1C0C8F01200C25026
:1039A800C30B1409C26E640E47EC22F09CEC22F0A3
:1039B80000D081EC22F00009D8A4FBD71BC19FF0EE
:1039C8001CC1A0F01DC1A1F08EEC21F09FC0BDF07C
:1039D800A0C0BEF0A1C0BFF018C1AEF019C1AFF0D1
:1039E8001AC1B0F05DEC22F09FC0A7F0A0C0A8F00B
:1039F8002BEC21F0A7C0ABF0A8C0ACF0A9C0ADF08B
:103A080032EC18F0ABC0BAF0ACC0BBF0ADC0BCF043
:103A1800DFEC12F0BAC01EF1BBC01FF1BCC020F130
:103A2800000E0001AE6FC80E0001AF6F420E00011C
:103A3800B06F1EC1ABF01FC1ACF020C1ADF032ECCD
:103A480018F0ABC009F1ACC00AF1ADC00BF121EC24
:103A58001AF009C121F10AC122F121C118F122C1CC
:103A680019F100D01200C250C30B1009C26E640EC7
:103A780047EC22F09CEC22F000D081EC22F0000907
:103A8800D8A4FBD71BC19FF01CC1A0F01DC1A1F099
:103A98008EEC21F09FC0BDF0A0C0BEF0A1C0BFF069
:103AA80018C1AEF019C1AFF01AC1B0F05DEC22F048
:103AB8009FC0A7F0A0C0A8F02BEC21F0A7C0ABF0E6
:103AC800A8C0ACF0A9C0ADF032EC18F0ABC0BAF0A9
:103AD800ACC0BBF0ADC0BCF0DFEC12F0BAC01EF158
:103AE800BBC01FF1BCC020F1000E0001AE6FC80EB4
:103AF8000001AF6F420E0001B06F1EC1ABF01FC1D5
:103B0800ACF020C1ADF032EC18F0ABC009F1ACC09C
:103B18000AF1ADC00BF121EC1AF009C121F10AC17B
:103B280022F121C118F122C119F100D01200C250AE
:103B3800C30B1809C26E640E47EC22F09CEC22F00D
:103B480000D081EC22F00009D8A4FBD71BC19FF05C
:103B58001CC1A0F01DC1A1F08EEC21F09FC0BDF0EA
:103B6800A0C0BEF0A1C0BFF018C1AEF019C1AFF03F
:103B78001AC1B0F05DEC22F09FC0A7F0A0C0A8F079
:103B88002BEC21F0A7C0ABF0A8C0ACF0A9C0ADF0F9
:103B980032EC18F0ABC0BAF0ACC0BBF0ADC0BCF0B2
:103BA800DFEC12F0BAC01EF1BBC01FF1BCC020F19F
:103BB800000E0001AE6FC80E0001AF6F420E00018B
:103BC800B06F1EC1ABF01FC1ACF020C1ADF032EC3C
:103BD80018F0ABC009F1ACC00AF1ADC00BF121EC93
:103BE8001AF009C121F10AC122F121C118F122C13B
:103BF80019F100D0120000019F510001A01100012D
:103C0800A111D8A412D0A2C0D9FFA3C0DAFF000E18
:103C1800DE6E000EDD6E000E00019F6F000E0001CB
:103C2800A06F000E0001A16F3CD00001A1517F0BD5
:103C38000001A46FA56BD8900001A437A537A2C0D6
:103C4800D9FFA3C0DAFFA4C0DEFFA5C0DDFF0001D5
:103C5800A0AF04D00001A46BA42B02D00001A46B78
:103C68000001A451A2C0D9FFA3C0DAFFDE12000EE2
:103C7800DD12A2C0D9FFA3C0DAFF820EDE26FF0E36
:103C8800DD22A181A183A185A187A189A18BA19D05
:103C98000001A09F9FC09FF0A0C0A0F0A1C0A1F00C
:103CA80000D0120003EE00F011EE00F0EE6AE550CD
:103CB800E150FCE1E250FAE102EE00F011EE00F012
:103CC800EE6AE550E150FCE1E250FAE101EEAEF0B7
:103CD8004C0EEE6AE806FDE10001DE6BDD6B00EEDE
:103CE80028F0220EEE6AE806FDE11E0EF66E410E81
:103CF800F76E000EF86E01EE58F010EE56F009005F
:103D0800F5CFEEFFE550E150FAE13C0EF66E450EB8
:103D1800F76E000EF86E0900F5CFDFF00900F5CF59
:103D2800E0F0780EF66E440EF76E000EF86E00EEB8
:103D38004AF010EE16F00900F5CFEEFFE550E1501D
:103D4800FAE1000EF86E000165EF11F0ADC0B7F0B2
:103D5800AEC0B8F0AFC0B9F0B0C0BAF00001B71F3C
:103D6800B81FB91FBA1FB72B000EB823B923BA233F
:103D78000001B1510001B72500019F6F0001B25148
:103D88000001B8210001A06F0001B3510001B92161
:103D98000001A16F0001B4510001BA210001A26F16
:103DA800B5C0A3F0B6C0A4F00001000EA4BFFF0E7A
:103DB800A56FA66FBAEC1AF000019F510001AD275C
:103DC8000001A0510001AE230001A1510001AF2361
:103DD8000001A2510001B023ADC0ADF0AEC0AEF0FD
:103DE800AFC0AFF0B0C0B0F000D0120067EC22F066
:103DF8009FC03CF0A0C03DF03A503C5C3B503D5861
:103E0800D8B01FD0F90E0001A36F030E0001A46FF4
:103E18003AC0A5F03BC0A6F00001A3510001A527B8
:103E28000001A4510001A6230001A51FA61FA54B50
:103E3800A62B3C500001A5253E6E3D500001A62151
:103E480010D03AC0A3F03BC0A4F00001A31FA41FE8
:103E5800A34BA42B3C500001A3253E6E3D5000010E
:103E6800A4213F6E00D03CC03AF03DC03BF01200A8
:103E78000001A16F000EAC6E000EAB6E0001A1A197
:103E880002D0AC8800D00001A1A303D0AC8CAB8CCD
:103E980000D00001A1A502D0AC8E00D00001A1A7DE
:103EA80002D0AB8802D0AB8A00D00001A1B9AC84A3
:103EB8009E980001A1AB02D0AB8600D00001A1AD55
:103EC80002D09D8A01D09D9A9E9A0001A1AF02D08E
:103ED8009D8801D09D989FC0AFFF0001A051B06E92
:103EE800AC8AAB8E949C948EACB8ACBE02D0948C49
:103EF80000D01200000E0001A56F000EA46F000193
:103F0800A1510001A211D8B431D0010E0001A36F54
:103F180007D00001D890A137A2370001A32B00D009
:103F28000001A2BF02D0F5D700D00001D890A43775
:103F3800A5370001A15100019F5D0001A2510001B8
:103F4800A059D8A00BD00001A15100019F5F00012A
:103F5800A2510001A05B0001A48100D00001D8900B
:103F6800A233A1330001A32FE0D700D0A4C09FF053
:103F7800A5C0A0F01200000E0001A76F000EA86FE8
:103F8800000EA96F000EAA6F00D000019FA111D0EA
:103F98000001A3510001A7270001A4510001A82393
:103FA8000001A5510001A9230001A6510001AA237F
:103FB80000D00001D890A337A437A537A637000151
:103FC800D890A233A133A0339F3300019F51000141
:103FD800A0110001A1110001A211D8A4D6D7A7C031
:103FE8009FF0A8C0A0F0A9C0A1F0AAC0A2F012003A
:103FF8000001A8510001A911D8B42BD0010E00016D
:10400800AA6F07D00001D890A837A9370001AA2BBA
:1040180000D00001A9BF02D0F5D700D00001A851F7
:104028000001A65D0001A9510001A759D8A009D037
:104038000001A8510001A65F0001A9510001A75B7A
:1040480000D00001D890A933A8330001AA2FE6D7E1
:1040580000D0A6C0A6F0A7C0A7F0120007D00001A4
:104068009F4BA02B0001A14BA22B00D09FC0D9FFD2
:10407800A0C0DAFFDF500001A36FA1C0D9FFA2C022
:10408800DAFFDF5000080001A3250001A46F00013A
:10409800A451D8A409D09FC0D9FFA0C0DAFFDF502F
:1040A800D8B402D0DCD700D00001A45100019F6F22
:1040B800A06B9FBFA00700D01200000E1C6E000E60
:1040C8001B6E18501910D8B421D0010E1A6E05D0E5
:1040D800D890183619361A2A00D019BE02D0F8D747
:1040E80000D0D8901B361C361850165C195017583B
:1040F800D8A006D01850165E1950175A1B8000D049
:10410800D890193218321A2EECD700D01BC016F0EE
:104118001CC017F012000D0A596F7520747970656C
:1041280064203A000100010001000100010081D96A
:10413800EBFF090028000500FDFF02000500030051
:1041480002000200FEFFFEFFFEFFFDFF000002006E
:10415800FFFFFEFF0100FDFF434F4E4649470D009C
:104168000000000000000000000000001F502010A8
:10417800D8B41DD0010E216E05D0D8901F36203638
:10418800212A00D020BE02D0F8D700D01F501D5CD5
:1041980020501E58D8A005D01F501D5E20501E5A12
:1041A80000D0D89020321F32212EF0D700D01DC069
:1041B8001DF01EC01EF0120003500410D8B41DD00C
:1041C800010E056E05D0D89003360436052A00D0B6
:1041D80004BE02D0F8D700D00350015C0450025846
:1041E800D8A005D00350015E0450025A00D0D890E0
:1041F80004320332052EF0D700D001C001F002C00E
:1042080002F012009FC0A3F0A0C0A4F007D00001E4
:10421800A34BA42B0001A14BA22B00D0A1C0F6FFF9
:10422800A2C0F7FFF86AA3C0D9FFA4C0DAFF050E41
:10423800F76403D00800F55005D0F6CFE9FFF7CFB3
:10424800EAFFEF50DF6EDF50D8A4E1D71200000E6E
:104258000001AA6F0001A8AF09D00001A76DA81F2F
:10426800D8B0A82B010E0001AA6F00D0A7C09FF0FC
:10427800A8C0A0F00001A16B8E0E0001A26FAAC019
:10428800A3F050EC1BF09FC0A7F0A0C0A8F0A1C0FD
:10429800A9F000D0120016C01AF017C01BF005D004
:1042A8001A4A1B2A184A192A00D018C0F6FF19C042
:1042B800F7FFF86A1AC0D9FF1BC0DAFF050EF764CA
:1042C80003D00800F55005D0F6CFE9FFF7CFEAFF95
:1042D800EF50DF6EDF50D8A4E3D7120000019F51E2
:1042E8000001A103F3CFA3F0F4CFA4F000019F5184
:1042F8000001A203F3500001A4270001A05100010E
:10430800A103F3500001A427A3C09FF0A4C0A0F00C
:1043180000D0120000019F510001A0110001A1115D
:10432800D8B409D0000E00019F1B000E0001A01B8D
:10433800800E0001A11B9FC09FF0A0C0A0F0A1C0EB
:10434800A1F012000001A16F000E0001A06F3A0E4B
:104358000001A16108D02F0E0001A16504D0010E53
:104368000001A06F00D0A0C09FF000019F3100D0D5
:1043780012000001A0AF0ED09FC0A1F0A0C0A2F013
:104388000001A11FA21FA14BA22BA1C09FF0A2C098
:10439800A0F004D09FC09FF0A0C0A0F0120016505B
:1043A8001802F3CF1AF0F4CF1BF016501902F3508D
:1043B8001B2617501802F3501B261AC016F01BC0F4
:1043C80017F000D0120000019F6F00019F517F0B72
:1043D800D56E000ED76E000ED66EF29400019FAF18
:1043E80002D0F28A01D0F29AD58E1200F20E481647
:1043F800ABAC05D04890ABA002D0488000D0ABB49D
:104408004884ABB24886AECF16F0165000D01200E2
:10441800186E000E176E3A0E186006D02F0E18642C
:1044280003D0010E176E00D017C016F0163000D05A
:104438001200949C948E7C0E606E230E0101FA6F1C
:10444800FAC19FF00001A06B60503CEC1FF0B886E9
:1044580012000001A06F0D0E00019F6FFC0EE82EE8
:10446800FED79F2FFCD70001A02FF5D700D0120050
:10447800600B44CD8C3F010032000A0001000100AE
:10448800D007D007DF0700019F6F030EE82EFED785
:1044980000F000019F2FF9D700D0120000019F6F94
:1044A800FA0E00F0E82EFDD700019F2FF9D700D0B3
:1044B8001200C4500001A16FC35000019F6FA1C03A
:1044C800A0F000D01200D6CFA1F0D7CFA2F0A1C0A3
:1044D8009FF0A2C0A0F01200F28CD08EF28EF28E65
:1044E800F28CF1849E8A9F9A120000019F6F00D07F
:1044F8009EA8FED79FC0ADFF1200C2A202D0010E37
:1045080002D0000E00D01200180EC16EBF0EC06E91
:10451800110EC26E1200166E00D09EA8FED716C0ED
:10452800ADFF12009F0E466E4650E7EC21F01200D8
:06453800C2821200010026
:1076D400000000C90092015B022403ED03B6047E9E
:1076E4000547061007D907A1086A09320AFB0AC32D
:1076F4000B8B0C530D1B0EE30EAB0F7210391100E4
:1077040012C7128E1355141B15E115A7166D1733E6
:1077140018F818BD19821A461B0B1CCF1C931D5652
:107724001E191FDC1F9F2061212322E422A6236748
:10773400242725E725A72667272628E528A32961E6
:107744002A1E2BDB2B982C542D102ECC2E862F4149
:1077540030FB30B4316D322633DE3396344D35038D
:1077640036B9366F372438D8388C393F3AF23AA4D0
:107774003B563C073DB73D673E163FC53F7340202F
:1077840041CD4179422543D0437A442345CC4574C5
:10779400461C47C34769480E49B349574AFA4A9DAC
:1077A4004B3F4CE04C804D204EBF4E5D4FFA4F97FF
:1077B400503351CE51685201539A533254C9545FD5
:1077C40055F45589561D57B0574258D3586359F349
:1077D40059815A0F5B9C5B285CB35C3D5DC65D4F71
:1077E4005ED65E5D5FE25F6760EB606E61F0617163
:1077F40062F1627063EE636B64E7646265DD655633
:1078040066CE664567BC673168A56819698B69FCF3
:10781400696C6ADB6A4A6BB76B236C8E6CF86C61BB
:107824006DC96D306E956EFA6E5E6FC06F22708298
:1078340070E17040719D71F9715472AE7206735E9D
:1078440073B5730A745E74B17403755475A475F3D7
:107854007540768D76D87622776B77B377F9773F54
:10786400788378C678087949798979C779047A411F
:107874007A7C7AB57AEE7A257B5C7B917BC47BF744
:107884007B297C597C887CB67CE27C0E7D387D61CA
:107894007D897DB07DD57DF97D1C7E3E7E5E7E7EBC
:1078A4007E9C7EB97ED47EEF7E087F207F377F4C1E
:1078B4007F617F747F867F967FA67FB47FC17FCDF3
:1078C4007FD77FE07FE87FEF7FF57FF97FFC7FFE46
:1078D4007FFF7FFE7FFC7FF97FF57FEF7FE87FE00E
:1078E4007FD77FCD7FC17FB47FA67F967F867F744D
:1078F4007F617F4C7F377F207F087FEF7ED47EB906
:107904007E9C7E7E7E5E7E3E7E1C7EF97DD57DB035
:107914007D897D617D387D0E7DE27CB67C887C59D5
:107924007C297CF77BC47B917B5C7B257BEE7AB5E1
:107934007A7C7A417A047AC779897949790879C64F
:107944007883783F78F977B3776B772277D8768D19
:10795400764076F375A47554750375B1745E740A34
:1079640074B5735E730673AE725472F9719D71408F
:1079740071E17082702270C06F5E6FFA6E956E3026
:107984006EC96D616DF86C8E6C236CB76B4A6BDBE2
:107994006A6C6AFC698B691969A5683168BC6745BA
:1079A40067CE665666DD656265E7646B64EE637098
:1079B40063F1627162F0616E61EB606760E25F5D6A
:1079C4005FD65E4F5EC65D3D5DB35C285C9C5B0F1D
:1079D4005B815AF3596359D3584258B0571D57899C
:1079E40056F4555F55C95432549A5301536852CED4
:1079F4005133519750FA4F5D4FBF4E204E804DE0AA
:107A04004C3F4C9D4BFA4A574AB3490E496948C307
:107A1400471C477446CC4523457A44D043254379D3
:107A240042CD4120417340C53F163F673EB73D07F5
:107A34003D563CA43BF23A3F3A8C39D83824386F4F
:107A440037B93603364D359634DE3326336D32B4CA
:107A540031FB304130862FCC2E102E542D982CDB48
:107A64002B1E2B612AA329E52826286727A726E7AA
:107A74002527256724A623E422232261219F20DCD5
:107A84001F191F561E931DCF1C0B1C461B821ABDAB
:107A940019F81833186D17A716E1151B1555148E10
:107AA40013C712001239117210AB0FE30E1B0E53E1
:107AB4000D8B0CC30BFB0A320A6A09A108D9071003
:107AC4000747067E05B604ED0324035B029201C951
:107AD40000000037FF6EFEA5FDDCFC13FC4AFB82B0
:107AE400FAB9F9F0F827F85FF796F6CEF505F53D03
:107AF400F475F3ADF2E5F11DF155F08EEFC7EE002C
:107B0400EE39ED72ECABEBE5EA1FEA59E993E8CD07
:107B1400E708E743E67EE5BAE4F5E331E36DE2AA7C
:107B2400E1E7E024E061DF9FDEDDDD1CDD5ADC9966
:107B3400DBD9DA19DA59D999D8DAD71BD75DD69FA8
:107B4400D5E2D425D468D3ACD2F0D134D17AD0BF25
:107B5400CF05CF4CCE93CDDACC22CC6ACBB3CAFDC1
:107B6400C947C991C8DCC728C774C6C1C50EC55C5E
:107B7400C4AAC3F9C249C299C1EAC03BC08DBFE0DF
:107B8400BE33BE87BDDBBC30BC86BBDDBA34BA8C29
:107B9400B9E4B83DB897B7F2B64DB6A9B506B56322
:107BA400B4C1B320B380B2E0B141B1A3B006B069AF
:107BB400AFCDAE32AE98ADFFAC66ACCEAB37ABA1B9
:107BC400AA0CAA77A9E3A850A8BEA72DA79DA60D25
:107BD400A67FA5F1A464A4D8A34DA3C3A23AA2B1DD
:107BE400A12AA1A3A01EA0999F159F929E109E8FCB
:107BF4009D0F9D909C129C959B199B9E9A239AAADB
:107C0400993299BB984498CF975B97E796759604F9
:107C14009694952595B6944994DD93729308939F11
:107C2400923792D0916B910691A2904090DE8F7E14
:107C34008F1F8FC08E638E078EAC8D528DFA8CA2EF
:107C44008C4B8CF68BA28B4F8BFD8AAC8A5C8A0D95
:107C54008AC08973892889DE8895884D880788C1F8
:107C6400877D873A87F886B78677863986FC85BF0D
:107C74008584854B851285DB84A4846F843C8409C8
:107C840084D783A78378834A831E83F282C8829F22
:107C940082778250822B820782E481C281A2818210
:107CA40081648147812C811181F880E080C980B48E
:107CB400809F808C807A806A805A804C803F803399
:107CC4008029802080188011800B80078004800226
:107CD4008001000A006400E803102700000000800F
:107CE4003FF0FFBEE2A93E8376BEAE2B3E3CC3BD51
:107CF400D2133D78D3BB537769746368696E672088
:107D04006F76657220746F2044617461204C6F67D4
:107D140067696E672E0D0A546F207265636F6E6E0D
:107D24006563742076696120626C7565746F6F7425
:107D3400682C20746865206C6F67676572206D75A8
:107D4400737420626520706F776572206379636C49
:107D540065642E0D0A426C7565746F6F7468206DCE
:107D64006F64756C652077696C6C20626520706F38
:107D7400776572656420646F776E206E6F772E0D61
:107D84000A00536574206F6666636F756E746D6167
:107D940078202864656661756C742032303030292F
:107DA4003A0D0A00536574206F6E746872657368C7
:107DB400202864656661756C742032303030293A4D
:107DC4000D0A00536574204E73686F727420286422
:107DD400656661756C74203130293A0D0A0053656B
:107DE40074204E6C6F6E67202864656661756C74D0
:107DF400203530293A0D0A00506572666F726D693C
:107E04006E67206F6E2D70756D7020434D2E2E2E73
:107E14000A000954657374696E6720636C61737337
:107E240069666965722E2E2E0A00446174652061AC
:107E34006E642054696D6520536574210D0A002514
:107E440036692C2536692C2536692C2535752C2563
:107E5400690D0A00617070656E642046494C4525C1
:107E640031692E7478740D0A00617070656E642037
:107E740046494C452532692E7478740D0A006170A8
:107E840070656E642046494C452533692E747874B8
:107E94000D0A0053657474696E6720436F6D706CCE
:107EA400657465210D0A0054696D653A20253269AF
:107EB4003A2532693A2532690D0A00446174653AFB
:107EC400202532692F2532692F2534690D0A005087
:107ED400756D70696E672053746F707065642E0DD4
:107EE4000A0009436F6D707574696E6720485046C7
:107EF4002E2E2E0A0009436F6D707574696E67200B
:107F04004646542E2E2E0A000D0D0A4C6F67207320
:107F1400746172746564210D0A006E6577204649A8
:107F24004C452531692E7478740D0A006E657720EE
:107F340046494C452532692E7478740D0A006E65E5
:107F4400772046494C452533692E7478740D0A0010
:107F54002536692C2536692C2536692C2535750D71
:107F64000A00496E707574207369676E616C2E2EF9
:107F74002E0A002532692F2532692F2534690D0A0E
:107F84000A00536574204D696E757465733A200058
:107F940009256920253669202536690A0053657448
:107FA400204D6F6E74683A200053657420486F75D5
:107FB40072733A200053657420596561723A200047
:107FC4000925692025692025690A00536574204420
:107FD40061793A2000092569202536690A00546927
:107FE4006D653F0D00446174653F0D004C4F470DB6
:0C7FF400005345540D007E7E7E0000000E
:020000040020DA
:08000000FFFFFFFFFFFFFFFF00
:020000040030CA
:0E000000FF06191EFF8181FF0FC00FE00F40A9
:00000001FF
